{
	"Udemy/special-variables.sol": {
		"Updated": {
			"abi": [
				{
					"inputs": [],
					"name": "updatesBalance",
					"outputs": [],
					"stateMutability": "nonpayable",
					"type": "function"
				}
			],
			"devdoc": {
				"kind": "dev",
				"methods": {},
				"version": 1
			},
			"evm": {
				"assembly": "    /* \"Udemy/special-variables.sol\":209:499  contract Updated {... */\n  mstore(0x40, 0x80)\n  callvalue\n  dup1\n  iszero\n  tag_1\n  jumpi\n  0x00\n  dup1\n  revert\ntag_1:\n  pop\n  dataSize(sub_0)\n  dup1\n  dataOffset(sub_0)\n  0x00\n  codecopy\n  0x00\n  return\nstop\n\nsub_0: assembly {\n        /* \"Udemy/special-variables.sol\":209:499  contract Updated {... */\n      mstore(0x40, 0x80)\n      callvalue\n      dup1\n      iszero\n      tag_1\n      jumpi\n      0x00\n      dup1\n      revert\n    tag_1:\n      pop\n      jumpi(tag_2, lt(calldatasize, 0x04))\n      shr(0xe0, calldataload(0x00))\n      dup1\n      0x22a39bfc\n      eq\n      tag_3\n      jumpi\n    tag_2:\n      0x00\n      dup1\n      revert\n        /* \"Udemy/special-variables.sol\":233:496  function updatesBalance () public ... */\n    tag_3:\n      tag_4\n      tag_5\n      jump\t// in\n    tag_4:\n      stop\n    tag_5:\n        /* \"Udemy/special-variables.sol\":284:311  LedgerBalance ledgerBalance */\n      0x00\n        /* \"Udemy/special-variables.sol\":314:333  new LedgerBalance() */\n      mload(0x40)\n      tag_7\n      swap1\n      tag_8\n      jump\t// in\n    tag_7:\n      mload(0x40)\n      dup1\n      swap2\n      sub\n      swap1\n      0x00\n      create\n      dup1\n      iszero\n      dup1\n      iszero\n      tag_9\n      jumpi\n      returndatasize\n      0x00\n      dup1\n      returndatacopy\n      revert(0x00, returndatasize)\n    tag_9:\n      pop\n        /* \"Udemy/special-variables.sol\":284:333  LedgerBalance ledgerBalance = new LedgerBalance() */\n      swap1\n      pop\n        /* \"Udemy/special-variables.sol\":456:469  ledgerBalance */\n      dup1\n        /* \"Udemy/special-variables.sol\":456:484  ledgerBalance.updatesBalance */\n      0xffffffffffffffffffffffffffffffffffffffff\n      and\n      0x17c2b39f\n        /* \"Udemy/special-variables.sol\":485:487  30 */\n      0x1e\n        /* \"Udemy/special-variables.sol\":456:488  ledgerBalance.updatesBalance(30) */\n      mload(0x40)\n      dup3\n      0xffffffff\n      and\n      0xe0\n      shl\n      dup2\n      mstore\n      0x04\n      add\n      tag_10\n      swap2\n      swap1\n      tag_11\n      jump\t// in\n    tag_10:\n      0x00\n      mload(0x40)\n      dup1\n      dup4\n      sub\n      dup2\n      0x00\n      dup8\n      dup1\n      extcodesize\n      iszero\n      dup1\n      iszero\n      tag_12\n      jumpi\n      0x00\n      dup1\n      revert\n    tag_12:\n      pop\n      gas\n      call\n      iszero\n      dup1\n      iszero\n      tag_14\n      jumpi\n      returndatasize\n      0x00\n      dup1\n      returndatacopy\n      revert(0x00, returndatasize)\n    tag_14:\n      pop\n      pop\n      pop\n      pop\n        /* \"Udemy/special-variables.sol\":273:496  {... */\n      pop\n        /* \"Udemy/special-variables.sol\":233:496  function updatesBalance () public ... */\n      jump\t// out\n    tag_8:\n      dataSize(sub_0)\n      dup1\n      dataOffset(sub_0)\n      dup4\n      codecopy\n      add\n      swap1\n      jump\t// out\n        /* \"#utility.yul\":7:93   */\n    tag_15:\n        /* \"#utility.yul\":53:60   */\n      0x00\n        /* \"#utility.yul\":82:87   */\n      dup2\n        /* \"#utility.yul\":71:87   */\n      swap1\n      pop\n        /* \"#utility.yul\":7:93   */\n      swap2\n      swap1\n      pop\n      jump\t// out\n        /* \"#utility.yul\":99:176   */\n    tag_16:\n        /* \"#utility.yul\":136:143   */\n      0x00\n        /* \"#utility.yul\":165:170   */\n      dup2\n        /* \"#utility.yul\":154:170   */\n      swap1\n      pop\n        /* \"#utility.yul\":99:176   */\n      swap2\n      swap1\n      pop\n      jump\t// out\n        /* \"#utility.yul\":182:242   */\n    tag_17:\n        /* \"#utility.yul\":210:213   */\n      0x00\n        /* \"#utility.yul\":231:236   */\n      dup2\n        /* \"#utility.yul\":224:236   */\n      swap1\n      pop\n        /* \"#utility.yul\":182:242   */\n      swap2\n      swap1\n      pop\n      jump\t// out\n        /* \"#utility.yul\":248:408   */\n    tag_18:\n        /* \"#utility.yul\":307:316   */\n      0x00\n        /* \"#utility.yul\":340:402   */\n      tag_25\n        /* \"#utility.yul\":358:401   */\n      tag_26\n        /* \"#utility.yul\":367:400   */\n      tag_27\n        /* \"#utility.yul\":394:399   */\n      dup5\n        /* \"#utility.yul\":367:400   */\n      tag_15\n      jump\t// in\n    tag_27:\n        /* \"#utility.yul\":358:401   */\n      tag_17\n      jump\t// in\n    tag_26:\n        /* \"#utility.yul\":340:402   */\n      tag_16\n      jump\t// in\n    tag_25:\n        /* \"#utility.yul\":327:402   */\n      swap1\n      pop\n        /* \"#utility.yul\":248:408   */\n      swap2\n      swap1\n      pop\n      jump\t// out\n        /* \"#utility.yul\":414:563   */\n    tag_19:\n        /* \"#utility.yul\":510:556   */\n      tag_29\n        /* \"#utility.yul\":550:555   */\n      dup2\n        /* \"#utility.yul\":510:556   */\n      tag_18\n      jump\t// in\n    tag_29:\n        /* \"#utility.yul\":505:508   */\n      dup3\n        /* \"#utility.yul\":498:557   */\n      mstore\n        /* \"#utility.yul\":414:563   */\n      pop\n      pop\n      jump\t// out\n        /* \"#utility.yul\":569:809   */\n    tag_11:\n        /* \"#utility.yul\":671:675   */\n      0x00\n        /* \"#utility.yul\":709:711   */\n      0x20\n        /* \"#utility.yul\":698:707   */\n      dup3\n        /* \"#utility.yul\":694:712   */\n      add\n        /* \"#utility.yul\":686:712   */\n      swap1\n      pop\n        /* \"#utility.yul\":722:802   */\n      tag_31\n        /* \"#utility.yul\":799:800   */\n      0x00\n        /* \"#utility.yul\":788:797   */\n      dup4\n        /* \"#utility.yul\":784:801   */\n      add\n        /* \"#utility.yul\":775:781   */\n      dup5\n        /* \"#utility.yul\":722:802   */\n      tag_19\n      jump\t// in\n    tag_31:\n        /* \"#utility.yul\":569:809   */\n      swap3\n      swap2\n      pop\n      pop\n      jump\t// out\n    stop\n\n    sub_0: assembly {\n            /* \"Udemy/special-variables.sol\":27:205  contract LedgerBalance ... */\n          mstore(0x40, 0x80)\n          callvalue\n          dup1\n          iszero\n          tag_1\n          jumpi\n          0x00\n          dup1\n          revert\n        tag_1:\n          pop\n          dataSize(sub_0)\n          dup1\n          dataOffset(sub_0)\n          0x00\n          codecopy\n          0x00\n          return\n        stop\n\n        sub_0: assembly {\n                /* \"Udemy/special-variables.sol\":27:205  contract LedgerBalance ... */\n              mstore(0x40, 0x80)\n              callvalue\n              dup1\n              iszero\n              tag_1\n              jumpi\n              0x00\n              dup1\n              revert\n            tag_1:\n              pop\n              jumpi(tag_2, lt(calldatasize, 0x04))\n              shr(0xe0, calldataload(0x00))\n              dup1\n              0x17c2b39f\n              eq\n              tag_3\n              jumpi\n            tag_2:\n              0x00\n              dup1\n              revert\n                /* \"Udemy/special-variables.sol\":98:202  function updatesBalance(uint newBalance) public... */\n            tag_3:\n              tag_4\n              0x04\n              dup1\n              calldatasize\n              sub\n              dup2\n              add\n              swap1\n              tag_5\n              swap2\n              swap1\n              tag_6\n              jump\t// in\n            tag_5:\n              tag_7\n              jump\t// in\n            tag_4:\n              stop\n            tag_7:\n                /* \"Udemy/special-variables.sol\":184:194  newBalance */\n              dup1\n                /* \"Udemy/special-variables.sol\":162:169  balance */\n              0x00\n                /* \"Udemy/special-variables.sol\":162:181  balance[msg.sender] */\n              dup1\n                /* \"Udemy/special-variables.sol\":170:180  msg.sender */\n              caller\n                /* \"Udemy/special-variables.sol\":162:181  balance[msg.sender] */\n              0xffffffffffffffffffffffffffffffffffffffff\n              and\n              0xffffffffffffffffffffffffffffffffffffffff\n              and\n              dup2\n              mstore\n              0x20\n              add\n              swap1\n              dup2\n              mstore\n              0x20\n              add\n              0x00\n              keccak256\n                /* \"Udemy/special-variables.sol\":162:194  balance[msg.sender] = newBalance */\n              dup2\n              swap1\n              sstore\n              pop\n                /* \"Udemy/special-variables.sol\":98:202  function updatesBalance(uint newBalance) public... */\n              pop\n              jump\t// out\n                /* \"#utility.yul\":88:205   */\n            tag_10:\n                /* \"#utility.yul\":197:198   */\n              0x00\n                /* \"#utility.yul\":194:195   */\n              dup1\n                /* \"#utility.yul\":187:199   */\n              revert\n                /* \"#utility.yul\":334:411   */\n            tag_12:\n                /* \"#utility.yul\":371:378   */\n              0x00\n                /* \"#utility.yul\":400:405   */\n              dup2\n                /* \"#utility.yul\":389:405   */\n              swap1\n              pop\n                /* \"#utility.yul\":334:411   */\n              swap2\n              swap1\n              pop\n              jump\t// out\n                /* \"#utility.yul\":417:539   */\n            tag_13:\n                /* \"#utility.yul\":490:514   */\n              tag_21\n                /* \"#utility.yul\":508:513   */\n              dup2\n                /* \"#utility.yul\":490:514   */\n              tag_12\n              jump\t// in\n            tag_21:\n                /* \"#utility.yul\":483:488   */\n              dup2\n                /* \"#utility.yul\":480:515   */\n              eq\n                /* \"#utility.yul\":470:533   */\n              tag_22\n              jumpi\n                /* \"#utility.yul\":529:530   */\n              0x00\n                /* \"#utility.yul\":526:527   */\n              dup1\n                /* \"#utility.yul\":519:531   */\n              revert\n                /* \"#utility.yul\":470:533   */\n            tag_22:\n                /* \"#utility.yul\":417:539   */\n              pop\n              jump\t// out\n                /* \"#utility.yul\":545:684   */\n            tag_14:\n                /* \"#utility.yul\":591:596   */\n              0x00\n                /* \"#utility.yul\":629:635   */\n              dup2\n                /* \"#utility.yul\":616:636   */\n              calldataload\n                /* \"#utility.yul\":607:636   */\n              swap1\n              pop\n                /* \"#utility.yul\":645:678   */\n              tag_24\n                /* \"#utility.yul\":672:677   */\n              dup2\n                /* \"#utility.yul\":645:678   */\n              tag_13\n              jump\t// in\n            tag_24:\n                /* \"#utility.yul\":545:684   */\n              swap3\n              swap2\n              pop\n              pop\n              jump\t// out\n                /* \"#utility.yul\":690:1019   */\n            tag_6:\n                /* \"#utility.yul\":749:755   */\n              0x00\n                /* \"#utility.yul\":798:800   */\n              0x20\n                /* \"#utility.yul\":786:795   */\n              dup3\n                /* \"#utility.yul\":777:784   */\n              dup5\n                /* \"#utility.yul\":773:796   */\n              sub\n                /* \"#utility.yul\":769:801   */\n              slt\n                /* \"#utility.yul\":766:885   */\n              iszero\n              tag_26\n              jumpi\n                /* \"#utility.yul\":804:883   */\n              tag_27\n              tag_10\n              jump\t// in\n            tag_27:\n                /* \"#utility.yul\":766:885   */\n            tag_26:\n                /* \"#utility.yul\":924:925   */\n              0x00\n                /* \"#utility.yul\":949:1002   */\n              tag_28\n                /* \"#utility.yul\":994:1001   */\n              dup5\n                /* \"#utility.yul\":985:991   */\n              dup3\n                /* \"#utility.yul\":974:983   */\n              dup6\n                /* \"#utility.yul\":970:992   */\n              add\n                /* \"#utility.yul\":949:1002   */\n              tag_14\n              jump\t// in\n            tag_28:\n                /* \"#utility.yul\":939:1002   */\n              swap2\n              pop\n                /* \"#utility.yul\":895:1012   */\n              pop\n                /* \"#utility.yul\":690:1019   */\n              swap3\n              swap2\n              pop\n              pop\n              jump\t// out\n\n            auxdata: 0xa2646970667358221220ba2958d6aedd1141178a64c6f84b5b6b3aa520067470cd0db200fc9fa6c7638c64736f6c63430008130033\n        }\n    }\n\n    auxdata: 0xa2646970667358221220df824f3a1a55092ff0bb5151e848dc4887421a23ccd5c9d13a1a76603d14b68264736f6c63430008130033\n}\n",
				"bytecode": {
					"linkReferences": {},
					"object": "608060405234801561001057600080fd5b506102c2806100206000396000f3fe608060405234801561001057600080fd5b506004361061002b5760003560e01c806322a39bfc14610030575b600080fd5b61003861003a565b005b6000604051610048906100d6565b604051809103906000f080158015610064573d6000803e3d6000fd5b5090508073ffffffffffffffffffffffffffffffffffffffff166317c2b39f601e6040518263ffffffff1660e01b81526004016100a19190610132565b600060405180830381600087803b1580156100bb57600080fd5b505af11580156100cf573d6000803e3d6000fd5b5050505050565b61013f8061014e83390190565b6000819050919050565b6000819050919050565b6000819050919050565b600061011c610117610112846100e3565b6100f7565b6100ed565b9050919050565b61012c81610101565b82525050565b60006020820190506101476000830184610123565b9291505056fe608060405234801561001057600080fd5b5061011f806100206000396000f3fe6080604052348015600f57600080fd5b506004361060285760003560e01c806317c2b39f14602d575b600080fd5b60436004803603810190603f919060c1565b6045565b005b806000803373ffffffffffffffffffffffffffffffffffffffff1673ffffffffffffffffffffffffffffffffffffffff1681526020019081526020016000208190555050565b600080fd5b6000819050919050565b60a1816090565b811460ab57600080fd5b50565b60008135905060bb81609a565b92915050565b60006020828403121560d45760d3608b565b5b600060e08482850160ae565b9150509291505056fea2646970667358221220ba2958d6aedd1141178a64c6f84b5b6b3aa520067470cd0db200fc9fa6c7638c64736f6c63430008130033a2646970667358221220df824f3a1a55092ff0bb5151e848dc4887421a23ccd5c9d13a1a76603d14b68264736f6c63430008130033",
					"opcodes": "PUSH1 0x80 PUSH1 0x40 MSTORE CALLVALUE DUP1 ISZERO PUSH2 0x10 JUMPI PUSH1 0x0 DUP1 REVERT JUMPDEST POP PUSH2 0x2C2 DUP1 PUSH2 0x20 PUSH1 0x0 CODECOPY PUSH1 0x0 RETURN INVALID PUSH1 0x80 PUSH1 0x40 MSTORE CALLVALUE DUP1 ISZERO PUSH2 0x10 JUMPI PUSH1 0x0 DUP1 REVERT JUMPDEST POP PUSH1 0x4 CALLDATASIZE LT PUSH2 0x2B JUMPI PUSH1 0x0 CALLDATALOAD PUSH1 0xE0 SHR DUP1 PUSH4 0x22A39BFC EQ PUSH2 0x30 JUMPI JUMPDEST PUSH1 0x0 DUP1 REVERT JUMPDEST PUSH2 0x38 PUSH2 0x3A JUMP JUMPDEST STOP JUMPDEST PUSH1 0x0 PUSH1 0x40 MLOAD PUSH2 0x48 SWAP1 PUSH2 0xD6 JUMP JUMPDEST PUSH1 0x40 MLOAD DUP1 SWAP2 SUB SWAP1 PUSH1 0x0 CREATE DUP1 ISZERO DUP1 ISZERO PUSH2 0x64 JUMPI RETURNDATASIZE PUSH1 0x0 DUP1 RETURNDATACOPY RETURNDATASIZE PUSH1 0x0 REVERT JUMPDEST POP SWAP1 POP DUP1 PUSH20 0xFFFFFFFFFFFFFFFFFFFFFFFFFFFFFFFFFFFFFFFF AND PUSH4 0x17C2B39F PUSH1 0x1E PUSH1 0x40 MLOAD DUP3 PUSH4 0xFFFFFFFF AND PUSH1 0xE0 SHL DUP2 MSTORE PUSH1 0x4 ADD PUSH2 0xA1 SWAP2 SWAP1 PUSH2 0x132 JUMP JUMPDEST PUSH1 0x0 PUSH1 0x40 MLOAD DUP1 DUP4 SUB DUP2 PUSH1 0x0 DUP8 DUP1 EXTCODESIZE ISZERO DUP1 ISZERO PUSH2 0xBB JUMPI PUSH1 0x0 DUP1 REVERT JUMPDEST POP GAS CALL ISZERO DUP1 ISZERO PUSH2 0xCF JUMPI RETURNDATASIZE PUSH1 0x0 DUP1 RETURNDATACOPY RETURNDATASIZE PUSH1 0x0 REVERT JUMPDEST POP POP POP POP POP JUMP JUMPDEST PUSH2 0x13F DUP1 PUSH2 0x14E DUP4 CODECOPY ADD SWAP1 JUMP JUMPDEST PUSH1 0x0 DUP2 SWAP1 POP SWAP2 SWAP1 POP JUMP JUMPDEST PUSH1 0x0 DUP2 SWAP1 POP SWAP2 SWAP1 POP JUMP JUMPDEST PUSH1 0x0 DUP2 SWAP1 POP SWAP2 SWAP1 POP JUMP JUMPDEST PUSH1 0x0 PUSH2 0x11C PUSH2 0x117 PUSH2 0x112 DUP5 PUSH2 0xE3 JUMP JUMPDEST PUSH2 0xF7 JUMP JUMPDEST PUSH2 0xED JUMP JUMPDEST SWAP1 POP SWAP2 SWAP1 POP JUMP JUMPDEST PUSH2 0x12C DUP2 PUSH2 0x101 JUMP JUMPDEST DUP3 MSTORE POP POP JUMP JUMPDEST PUSH1 0x0 PUSH1 0x20 DUP3 ADD SWAP1 POP PUSH2 0x147 PUSH1 0x0 DUP4 ADD DUP5 PUSH2 0x123 JUMP JUMPDEST SWAP3 SWAP2 POP POP JUMP INVALID PUSH1 0x80 PUSH1 0x40 MSTORE CALLVALUE DUP1 ISZERO PUSH2 0x10 JUMPI PUSH1 0x0 DUP1 REVERT JUMPDEST POP PUSH2 0x11F DUP1 PUSH2 0x20 PUSH1 0x0 CODECOPY PUSH1 0x0 RETURN INVALID PUSH1 0x80 PUSH1 0x40 MSTORE CALLVALUE DUP1 ISZERO PUSH1 0xF JUMPI PUSH1 0x0 DUP1 REVERT JUMPDEST POP PUSH1 0x4 CALLDATASIZE LT PUSH1 0x28 JUMPI PUSH1 0x0 CALLDATALOAD PUSH1 0xE0 SHR DUP1 PUSH4 0x17C2B39F EQ PUSH1 0x2D JUMPI JUMPDEST PUSH1 0x0 DUP1 REVERT JUMPDEST PUSH1 0x43 PUSH1 0x4 DUP1 CALLDATASIZE SUB DUP2 ADD SWAP1 PUSH1 0x3F SWAP2 SWAP1 PUSH1 0xC1 JUMP JUMPDEST PUSH1 0x45 JUMP JUMPDEST STOP JUMPDEST DUP1 PUSH1 0x0 DUP1 CALLER PUSH20 0xFFFFFFFFFFFFFFFFFFFFFFFFFFFFFFFFFFFFFFFF AND PUSH20 0xFFFFFFFFFFFFFFFFFFFFFFFFFFFFFFFFFFFFFFFF AND DUP2 MSTORE PUSH1 0x20 ADD SWAP1 DUP2 MSTORE PUSH1 0x20 ADD PUSH1 0x0 KECCAK256 DUP2 SWAP1 SSTORE POP POP JUMP JUMPDEST PUSH1 0x0 DUP1 REVERT JUMPDEST PUSH1 0x0 DUP2 SWAP1 POP SWAP2 SWAP1 POP JUMP JUMPDEST PUSH1 0xA1 DUP2 PUSH1 0x90 JUMP JUMPDEST DUP2 EQ PUSH1 0xAB JUMPI PUSH1 0x0 DUP1 REVERT JUMPDEST POP JUMP JUMPDEST PUSH1 0x0 DUP2 CALLDATALOAD SWAP1 POP PUSH1 0xBB DUP2 PUSH1 0x9A JUMP JUMPDEST SWAP3 SWAP2 POP POP JUMP JUMPDEST PUSH1 0x0 PUSH1 0x20 DUP3 DUP5 SUB SLT ISZERO PUSH1 0xD4 JUMPI PUSH1 0xD3 PUSH1 0x8B JUMP JUMPDEST JUMPDEST PUSH1 0x0 PUSH1 0xE0 DUP5 DUP3 DUP6 ADD PUSH1 0xAE JUMP JUMPDEST SWAP2 POP POP SWAP3 SWAP2 POP POP JUMP INVALID LOG2 PUSH5 0x6970667358 0x22 SLT KECCAK256 0xBA 0x29 PC 0xD6 0xAE 0xDD GT COINBASE OR DUP11 PUSH5 0xC6F84B5B6B GASPRICE 0xA5 KECCAK256 MOD PUSH21 0x70CD0DB200FC9FA6C7638C64736F6C634300081300 CALLER LOG2 PUSH5 0x6970667358 0x22 SLT KECCAK256 0xDF DUP3 0x4F GASPRICE BYTE SSTORE MULMOD 0x2F CREATE 0xBB MLOAD MLOAD 0xE8 BASEFEE 0xDC BASEFEE DUP8 TIMESTAMP BYTE 0x23 0xCC 0xD5 0xC9 0xD1 GASPRICE BYTE PUSH23 0x603D14B68264736F6C6343000813003300000000000000 "
				},
				"gasEstimates": {
					"creation": {
						"codeDepositCost": "141200",
						"executionCost": "190",
						"totalCost": "141390"
					},
					"external": {
						"updatesBalance()": "infinite"
					}
				},
				"methodIdentifiers": {
					"updatesBalance()": "22a39bfc"
				}
			},
			"storageLayout": {
				"storage": [],
				"types": null
			},
			"userdoc": {
				"kind": "user",
				"methods": {},
				"version": 1
			}
		}
	}
}