{
	"Udemy/mapping.sol": {
		"Exersice": {
			"abi": [
				{
					"inputs": [
						{
							"internalType": "uint256",
							"name": "movie_id",
							"type": "uint256"
						},
						{
							"internalType": "string",
							"name": "title",
							"type": "string"
						},
						{
							"internalType": "string",
							"name": "director",
							"type": "string"
						}
					],
					"name": "addMovie",
					"outputs": [],
					"stateMutability": "nonpayable",
					"type": "function"
				},
				{
					"inputs": [
						{
							"internalType": "uint256",
							"name": "movie_id",
							"type": "uint256"
						},
						{
							"internalType": "string",
							"name": "title",
							"type": "string"
						},
						{
							"internalType": "string",
							"name": "director",
							"type": "string"
						}
					],
					"name": "addMyMovie",
					"outputs": [],
					"stateMutability": "nonpayable",
					"type": "function"
				},
				{
					"inputs": [
						{
							"internalType": "uint256",
							"name": "",
							"type": "uint256"
						}
					],
					"name": "movie",
					"outputs": [
						{
							"internalType": "string",
							"name": "title",
							"type": "string"
						},
						{
							"internalType": "string",
							"name": "director",
							"type": "string"
						}
					],
					"stateMutability": "view",
					"type": "function"
				},
				{
					"inputs": [
						{
							"internalType": "address",
							"name": "",
							"type": "address"
						},
						{
							"internalType": "uint256",
							"name": "",
							"type": "uint256"
						}
					],
					"name": "myMovie",
					"outputs": [
						{
							"internalType": "string",
							"name": "title",
							"type": "string"
						},
						{
							"internalType": "string",
							"name": "director",
							"type": "string"
						}
					],
					"stateMutability": "view",
					"type": "function"
				}
			],
			"devdoc": {
				"kind": "dev",
				"methods": {},
				"version": 1
			},
			"evm": {
				"assembly": "    /* \"Udemy/mapping.sol\":400:946  contract Exersice {... */\n  mstore(0x40, 0x80)\n  callvalue\n  dup1\n  iszero\n  tag_1\n  jumpi\n  0x00\n  dup1\n  revert\ntag_1:\n  pop\n  dataSize(sub_0)\n  dup1\n  dataOffset(sub_0)\n  0x00\n  codecopy\n  0x00\n  return\nstop\n\nsub_0: assembly {\n        /* \"Udemy/mapping.sol\":400:946  contract Exersice {... */\n      mstore(0x40, 0x80)\n      callvalue\n      dup1\n      iszero\n      tag_1\n      jumpi\n      0x00\n      dup1\n      revert\n    tag_1:\n      pop\n      jumpi(tag_2, lt(calldatasize, 0x04))\n      shr(0xe0, calldataload(0x00))\n      dup1\n      0x11f72990\n      eq\n      tag_3\n      jumpi\n      dup1\n      0x87eb54fe\n      eq\n      tag_4\n      jumpi\n      dup1\n      0xd87ec417\n      eq\n      tag_5\n      jumpi\n      dup1\n      0xf40f48c9\n      eq\n      tag_6\n      jumpi\n    tag_2:\n      0x00\n      dup1\n      revert\n        /* \"Udemy/mapping.sol\":548:606  mapping (address => mapping(uint => Movie)) public myMovie */\n    tag_3:\n      tag_7\n      0x04\n      dup1\n      calldatasize\n      sub\n      dup2\n      add\n      swap1\n      tag_8\n      swap2\n      swap1\n      tag_9\n      jump\t// in\n    tag_8:\n      tag_10\n      jump\t// in\n    tag_7:\n      mload(0x40)\n      tag_11\n      swap3\n      swap2\n      swap1\n      tag_12\n      jump\t// in\n    tag_11:\n      mload(0x40)\n      dup1\n      swap2\n      sub\n      swap1\n      return\n        /* \"Udemy/mapping.sol\":774:943  function addMyMovie (uint movie_id, string memory title, string memory director) public ... */\n    tag_4:\n      tag_13\n      0x04\n      dup1\n      calldatasize\n      sub\n      dup2\n      add\n      swap1\n      tag_14\n      swap2\n      swap1\n      tag_15\n      jump\t// in\n    tag_14:\n      tag_16\n      jump\t// in\n    tag_13:\n      stop\n        /* \"Udemy/mapping.sol\":505:541  mapping (uint => Movie) public movie */\n    tag_5:\n      tag_17\n      0x04\n      dup1\n      calldatasize\n      sub\n      dup2\n      add\n      swap1\n      tag_18\n      swap2\n      swap1\n      tag_19\n      jump\t// in\n    tag_18:\n      tag_20\n      jump\t// in\n    tag_17:\n      mload(0x40)\n      tag_21\n      swap3\n      swap2\n      swap1\n      tag_12\n      jump\t// in\n    tag_21:\n      mload(0x40)\n      dup1\n      swap2\n      sub\n      swap1\n      return\n        /* \"Udemy/mapping.sol\":615:766  function addMovie (uint movie_id, string memory title, string memory director) public ... */\n    tag_6:\n      tag_22\n      0x04\n      dup1\n      calldatasize\n      sub\n      dup2\n      add\n      swap1\n      tag_23\n      swap2\n      swap1\n      tag_15\n      jump\t// in\n    tag_23:\n      tag_24\n      jump\t// in\n    tag_22:\n      stop\n        /* \"Udemy/mapping.sol\":548:606  mapping (address => mapping(uint => Movie)) public myMovie */\n    tag_10:\n      mstore(0x20, 0x01)\n      dup2\n      0x00\n      mstore\n      mstore(0x20, keccak256(0x00, 0x40))\n      dup1\n      0x00\n      mstore\n      keccak256(0x00, 0x40)\n      0x00\n      swap2\n      pop\n      swap2\n      pop\n      pop\n      dup1\n      0x00\n      add\n      dup1\n      sload\n      tag_25\n      swap1\n      tag_26\n      jump\t// in\n    tag_25:\n      dup1\n      0x1f\n      add\n      0x20\n      dup1\n      swap2\n      div\n      mul\n      0x20\n      add\n      mload(0x40)\n      swap1\n      dup2\n      add\n      0x40\n      mstore\n      dup1\n      swap3\n      swap2\n      swap1\n      dup2\n      dup2\n      mstore\n      0x20\n      add\n      dup3\n      dup1\n      sload\n      tag_27\n      swap1\n      tag_26\n      jump\t// in\n    tag_27:\n      dup1\n      iszero\n      tag_28\n      jumpi\n      dup1\n      0x1f\n      lt\n      tag_29\n      jumpi\n      0x0100\n      dup1\n      dup4\n      sload\n      div\n      mul\n      dup4\n      mstore\n      swap2\n      0x20\n      add\n      swap2\n      jump(tag_28)\n    tag_29:\n      dup3\n      add\n      swap2\n      swap1\n      0x00\n      mstore\n      keccak256(0x00, 0x20)\n      swap1\n    tag_30:\n      dup2\n      sload\n      dup2\n      mstore\n      swap1\n      0x01\n      add\n      swap1\n      0x20\n      add\n      dup1\n      dup4\n      gt\n      tag_30\n      jumpi\n      dup3\n      swap1\n      sub\n      0x1f\n      and\n      dup3\n      add\n      swap2\n    tag_28:\n      pop\n      pop\n      pop\n      pop\n      pop\n      swap1\n      dup1\n      0x01\n      add\n      dup1\n      sload\n      tag_31\n      swap1\n      tag_26\n      jump\t// in\n    tag_31:\n      dup1\n      0x1f\n      add\n      0x20\n      dup1\n      swap2\n      div\n      mul\n      0x20\n      add\n      mload(0x40)\n      swap1\n      dup2\n      add\n      0x40\n      mstore\n      dup1\n      swap3\n      swap2\n      swap1\n      dup2\n      dup2\n      mstore\n      0x20\n      add\n      dup3\n      dup1\n      sload\n      tag_32\n      swap1\n      tag_26\n      jump\t// in\n    tag_32:\n      dup1\n      iszero\n      tag_33\n      jumpi\n      dup1\n      0x1f\n      lt\n      tag_34\n      jumpi\n      0x0100\n      dup1\n      dup4\n      sload\n      div\n      mul\n      dup4\n      mstore\n      swap2\n      0x20\n      add\n      swap2\n      jump(tag_33)\n    tag_34:\n      dup3\n      add\n      swap2\n      swap1\n      0x00\n      mstore\n      keccak256(0x00, 0x20)\n      swap1\n    tag_35:\n      dup2\n      sload\n      dup2\n      mstore\n      swap1\n      0x01\n      add\n      swap1\n      0x20\n      add\n      dup1\n      dup4\n      gt\n      tag_35\n      jumpi\n      dup3\n      swap1\n      sub\n      0x1f\n      and\n      dup3\n      add\n      swap2\n    tag_33:\n      pop\n      pop\n      pop\n      pop\n      pop\n      swap1\n      pop\n      dup3\n      jump\t// out\n        /* \"Udemy/mapping.sol\":774:943  function addMyMovie (uint movie_id, string memory title, string memory director) public ... */\n    tag_16:\n        /* \"Udemy/mapping.sol\":911:933  Movie(title, director) */\n      mload(0x40)\n      dup1\n      0x40\n      add\n      0x40\n      mstore\n      dup1\n        /* \"Udemy/mapping.sol\":917:922  title */\n      dup4\n        /* \"Udemy/mapping.sol\":911:933  Movie(title, director) */\n      dup2\n      mstore\n      0x20\n      add\n        /* \"Udemy/mapping.sol\":924:932  director */\n      dup3\n        /* \"Udemy/mapping.sol\":911:933  Movie(title, director) */\n      dup2\n      mstore\n      pop\n        /* \"Udemy/mapping.sol\":879:886  myMovie */\n      0x01\n        /* \"Udemy/mapping.sol\":879:898  myMovie[msg.sender] */\n      0x00\n        /* \"Udemy/mapping.sol\":887:897  msg.sender */\n      caller\n        /* \"Udemy/mapping.sol\":879:898  myMovie[msg.sender] */\n      0xffffffffffffffffffffffffffffffffffffffff\n      and\n      0xffffffffffffffffffffffffffffffffffffffff\n      and\n      dup2\n      mstore\n      0x20\n      add\n      swap1\n      dup2\n      mstore\n      0x20\n      add\n      0x00\n      keccak256\n        /* \"Udemy/mapping.sol\":879:908  myMovie[msg.sender][movie_id] */\n      0x00\n        /* \"Udemy/mapping.sol\":899:907  movie_id */\n      dup6\n        /* \"Udemy/mapping.sol\":879:908  myMovie[msg.sender][movie_id] */\n      dup2\n      mstore\n      0x20\n      add\n      swap1\n      dup2\n      mstore\n      0x20\n      add\n      0x00\n      keccak256\n        /* \"Udemy/mapping.sol\":879:933  myMovie[msg.sender][movie_id] = Movie(title, director) */\n      0x00\n      dup3\n      add\n      mload\n      dup2\n      0x00\n      add\n      swap1\n      dup2\n      tag_37\n      swap2\n      swap1\n      tag_38\n      jump\t// in\n    tag_37:\n      pop\n      0x20\n      dup3\n      add\n      mload\n      dup2\n      0x01\n      add\n      swap1\n      dup2\n      tag_39\n      swap2\n      swap1\n      tag_38\n      jump\t// in\n    tag_39:\n      pop\n      swap1\n      pop\n      pop\n        /* \"Udemy/mapping.sol\":774:943  function addMyMovie (uint movie_id, string memory title, string memory director) public ... */\n      pop\n      pop\n      pop\n      jump\t// out\n        /* \"Udemy/mapping.sol\":505:541  mapping (uint => Movie) public movie */\n    tag_20:\n      mstore(0x20, 0x00)\n      dup1\n      0x00\n      mstore\n      keccak256(0x00, 0x40)\n      0x00\n      swap2\n      pop\n      swap1\n      pop\n      dup1\n      0x00\n      add\n      dup1\n      sload\n      tag_40\n      swap1\n      tag_26\n      jump\t// in\n    tag_40:\n      dup1\n      0x1f\n      add\n      0x20\n      dup1\n      swap2\n      div\n      mul\n      0x20\n      add\n      mload(0x40)\n      swap1\n      dup2\n      add\n      0x40\n      mstore\n      dup1\n      swap3\n      swap2\n      swap1\n      dup2\n      dup2\n      mstore\n      0x20\n      add\n      dup3\n      dup1\n      sload\n      tag_41\n      swap1\n      tag_26\n      jump\t// in\n    tag_41:\n      dup1\n      iszero\n      tag_42\n      jumpi\n      dup1\n      0x1f\n      lt\n      tag_43\n      jumpi\n      0x0100\n      dup1\n      dup4\n      sload\n      div\n      mul\n      dup4\n      mstore\n      swap2\n      0x20\n      add\n      swap2\n      jump(tag_42)\n    tag_43:\n      dup3\n      add\n      swap2\n      swap1\n      0x00\n      mstore\n      keccak256(0x00, 0x20)\n      swap1\n    tag_44:\n      dup2\n      sload\n      dup2\n      mstore\n      swap1\n      0x01\n      add\n      swap1\n      0x20\n      add\n      dup1\n      dup4\n      gt\n      tag_44\n      jumpi\n      dup3\n      swap1\n      sub\n      0x1f\n      and\n      dup3\n      add\n      swap2\n    tag_42:\n      pop\n      pop\n      pop\n      pop\n      pop\n      swap1\n      dup1\n      0x01\n      add\n      dup1\n      sload\n      tag_45\n      swap1\n      tag_26\n      jump\t// in\n    tag_45:\n      dup1\n      0x1f\n      add\n      0x20\n      dup1\n      swap2\n      div\n      mul\n      0x20\n      add\n      mload(0x40)\n      swap1\n      dup2\n      add\n      0x40\n      mstore\n      dup1\n      swap3\n      swap2\n      swap1\n      dup2\n      dup2\n      mstore\n      0x20\n      add\n      dup3\n      dup1\n      sload\n      tag_46\n      swap1\n      tag_26\n      jump\t// in\n    tag_46:\n      dup1\n      iszero\n      tag_47\n      jumpi\n      dup1\n      0x1f\n      lt\n      tag_48\n      jumpi\n      0x0100\n      dup1\n      dup4\n      sload\n      div\n      mul\n      dup4\n      mstore\n      swap2\n      0x20\n      add\n      swap2\n      jump(tag_47)\n    tag_48:\n      dup3\n      add\n      swap2\n      swap1\n      0x00\n      mstore\n      keccak256(0x00, 0x20)\n      swap1\n    tag_49:\n      dup2\n      sload\n      dup2\n      mstore\n      swap1\n      0x01\n      add\n      swap1\n      0x20\n      add\n      dup1\n      dup4\n      gt\n      tag_49\n      jumpi\n      dup3\n      swap1\n      sub\n      0x1f\n      and\n      dup3\n      add\n      swap2\n    tag_47:\n      pop\n      pop\n      pop\n      pop\n      pop\n      swap1\n      pop\n      dup3\n      jump\t// out\n        /* \"Udemy/mapping.sol\":615:766  function addMovie (uint movie_id, string memory title, string memory director) public ... */\n    tag_24:\n        /* \"Udemy/mapping.sol\":736:758  Movie(title, director) */\n      mload(0x40)\n      dup1\n      0x40\n      add\n      0x40\n      mstore\n      dup1\n        /* \"Udemy/mapping.sol\":742:747  title */\n      dup4\n        /* \"Udemy/mapping.sol\":736:758  Movie(title, director) */\n      dup2\n      mstore\n      0x20\n      add\n        /* \"Udemy/mapping.sol\":749:757  director */\n      dup3\n        /* \"Udemy/mapping.sol\":736:758  Movie(title, director) */\n      dup2\n      mstore\n      pop\n        /* \"Udemy/mapping.sol\":718:723  movie */\n      0x00\n        /* \"Udemy/mapping.sol\":718:733  movie[movie_id] */\n      dup1\n        /* \"Udemy/mapping.sol\":724:732  movie_id */\n      dup6\n        /* \"Udemy/mapping.sol\":718:733  movie[movie_id] */\n      dup2\n      mstore\n      0x20\n      add\n      swap1\n      dup2\n      mstore\n      0x20\n      add\n      0x00\n      keccak256\n        /* \"Udemy/mapping.sol\":718:758  movie[movie_id] = Movie(title, director) */\n      0x00\n      dup3\n      add\n      mload\n      dup2\n      0x00\n      add\n      swap1\n      dup2\n      tag_51\n      swap2\n      swap1\n      tag_38\n      jump\t// in\n    tag_51:\n      pop\n      0x20\n      dup3\n      add\n      mload\n      dup2\n      0x01\n      add\n      swap1\n      dup2\n      tag_52\n      swap2\n      swap1\n      tag_38\n      jump\t// in\n    tag_52:\n      pop\n      swap1\n      pop\n      pop\n        /* \"Udemy/mapping.sol\":615:766  function addMovie (uint movie_id, string memory title, string memory director) public ... */\n      pop\n      pop\n      pop\n      jump\t// out\n        /* \"#utility.yul\":7:82   */\n    tag_53:\n        /* \"#utility.yul\":40:46   */\n      0x00\n        /* \"#utility.yul\":73:75   */\n      0x40\n        /* \"#utility.yul\":67:76   */\n      mload\n        /* \"#utility.yul\":57:76   */\n      swap1\n      pop\n        /* \"#utility.yul\":7:82   */\n      swap1\n      jump\t// out\n        /* \"#utility.yul\":88:205   */\n    tag_54:\n        /* \"#utility.yul\":197:198   */\n      0x00\n        /* \"#utility.yul\":194:195   */\n      dup1\n        /* \"#utility.yul\":187:199   */\n      revert\n        /* \"#utility.yul\":211:328   */\n    tag_55:\n        /* \"#utility.yul\":320:321   */\n      0x00\n        /* \"#utility.yul\":317:318   */\n      dup1\n        /* \"#utility.yul\":310:322   */\n      revert\n        /* \"#utility.yul\":334:460   */\n    tag_56:\n        /* \"#utility.yul\":371:378   */\n      0x00\n        /* \"#utility.yul\":411:453   */\n      0xffffffffffffffffffffffffffffffffffffffff\n        /* \"#utility.yul\":404:409   */\n      dup3\n        /* \"#utility.yul\":400:454   */\n      and\n        /* \"#utility.yul\":389:454   */\n      swap1\n      pop\n        /* \"#utility.yul\":334:460   */\n      swap2\n      swap1\n      pop\n      jump\t// out\n        /* \"#utility.yul\":466:562   */\n    tag_57:\n        /* \"#utility.yul\":503:510   */\n      0x00\n        /* \"#utility.yul\":532:556   */\n      tag_99\n        /* \"#utility.yul\":550:555   */\n      dup3\n        /* \"#utility.yul\":532:556   */\n      tag_56\n      jump\t// in\n    tag_99:\n        /* \"#utility.yul\":521:556   */\n      swap1\n      pop\n        /* \"#utility.yul\":466:562   */\n      swap2\n      swap1\n      pop\n      jump\t// out\n        /* \"#utility.yul\":568:690   */\n    tag_58:\n        /* \"#utility.yul\":641:665   */\n      tag_101\n        /* \"#utility.yul\":659:664   */\n      dup2\n        /* \"#utility.yul\":641:665   */\n      tag_57\n      jump\t// in\n    tag_101:\n        /* \"#utility.yul\":634:639   */\n      dup2\n        /* \"#utility.yul\":631:666   */\n      eq\n        /* \"#utility.yul\":621:684   */\n      tag_102\n      jumpi\n        /* \"#utility.yul\":680:681   */\n      0x00\n        /* \"#utility.yul\":677:678   */\n      dup1\n        /* \"#utility.yul\":670:682   */\n      revert\n        /* \"#utility.yul\":621:684   */\n    tag_102:\n        /* \"#utility.yul\":568:690   */\n      pop\n      jump\t// out\n        /* \"#utility.yul\":696:835   */\n    tag_59:\n        /* \"#utility.yul\":742:747   */\n      0x00\n        /* \"#utility.yul\":780:786   */\n      dup2\n        /* \"#utility.yul\":767:787   */\n      calldataload\n        /* \"#utility.yul\":758:787   */\n      swap1\n      pop\n        /* \"#utility.yul\":796:829   */\n      tag_104\n        /* \"#utility.yul\":823:828   */\n      dup2\n        /* \"#utility.yul\":796:829   */\n      tag_58\n      jump\t// in\n    tag_104:\n        /* \"#utility.yul\":696:835   */\n      swap3\n      swap2\n      pop\n      pop\n      jump\t// out\n        /* \"#utility.yul\":841:918   */\n    tag_60:\n        /* \"#utility.yul\":878:885   */\n      0x00\n        /* \"#utility.yul\":907:912   */\n      dup2\n        /* \"#utility.yul\":896:912   */\n      swap1\n      pop\n        /* \"#utility.yul\":841:918   */\n      swap2\n      swap1\n      pop\n      jump\t// out\n        /* \"#utility.yul\":924:1046   */\n    tag_61:\n        /* \"#utility.yul\":997:1021   */\n      tag_107\n        /* \"#utility.yul\":1015:1020   */\n      dup2\n        /* \"#utility.yul\":997:1021   */\n      tag_60\n      jump\t// in\n    tag_107:\n        /* \"#utility.yul\":990:995   */\n      dup2\n        /* \"#utility.yul\":987:1022   */\n      eq\n        /* \"#utility.yul\":977:1040   */\n      tag_108\n      jumpi\n        /* \"#utility.yul\":1036:1037   */\n      0x00\n        /* \"#utility.yul\":1033:1034   */\n      dup1\n        /* \"#utility.yul\":1026:1038   */\n      revert\n        /* \"#utility.yul\":977:1040   */\n    tag_108:\n        /* \"#utility.yul\":924:1046   */\n      pop\n      jump\t// out\n        /* \"#utility.yul\":1052:1191   */\n    tag_62:\n        /* \"#utility.yul\":1098:1103   */\n      0x00\n        /* \"#utility.yul\":1136:1142   */\n      dup2\n        /* \"#utility.yul\":1123:1143   */\n      calldataload\n        /* \"#utility.yul\":1114:1143   */\n      swap1\n      pop\n        /* \"#utility.yul\":1152:1185   */\n      tag_110\n        /* \"#utility.yul\":1179:1184   */\n      dup2\n        /* \"#utility.yul\":1152:1185   */\n      tag_61\n      jump\t// in\n    tag_110:\n        /* \"#utility.yul\":1052:1191   */\n      swap3\n      swap2\n      pop\n      pop\n      jump\t// out\n        /* \"#utility.yul\":1197:1671   */\n    tag_9:\n        /* \"#utility.yul\":1265:1271   */\n      0x00\n        /* \"#utility.yul\":1273:1279   */\n      dup1\n        /* \"#utility.yul\":1322:1324   */\n      0x40\n        /* \"#utility.yul\":1310:1319   */\n      dup4\n        /* \"#utility.yul\":1301:1308   */\n      dup6\n        /* \"#utility.yul\":1297:1320   */\n      sub\n        /* \"#utility.yul\":1293:1325   */\n      slt\n        /* \"#utility.yul\":1290:1409   */\n      iszero\n      tag_112\n      jumpi\n        /* \"#utility.yul\":1328:1407   */\n      tag_113\n      tag_54\n      jump\t// in\n    tag_113:\n        /* \"#utility.yul\":1290:1409   */\n    tag_112:\n        /* \"#utility.yul\":1448:1449   */\n      0x00\n        /* \"#utility.yul\":1473:1526   */\n      tag_114\n        /* \"#utility.yul\":1518:1525   */\n      dup6\n        /* \"#utility.yul\":1509:1515   */\n      dup3\n        /* \"#utility.yul\":1498:1507   */\n      dup7\n        /* \"#utility.yul\":1494:1516   */\n      add\n        /* \"#utility.yul\":1473:1526   */\n      tag_59\n      jump\t// in\n    tag_114:\n        /* \"#utility.yul\":1463:1526   */\n      swap3\n      pop\n        /* \"#utility.yul\":1419:1536   */\n      pop\n        /* \"#utility.yul\":1575:1577   */\n      0x20\n        /* \"#utility.yul\":1601:1654   */\n      tag_115\n        /* \"#utility.yul\":1646:1653   */\n      dup6\n        /* \"#utility.yul\":1637:1643   */\n      dup3\n        /* \"#utility.yul\":1626:1635   */\n      dup7\n        /* \"#utility.yul\":1622:1644   */\n      add\n        /* \"#utility.yul\":1601:1654   */\n      tag_62\n      jump\t// in\n    tag_115:\n        /* \"#utility.yul\":1591:1654   */\n      swap2\n      pop\n        /* \"#utility.yul\":1546:1664   */\n      pop\n        /* \"#utility.yul\":1197:1671   */\n      swap3\n      pop\n      swap3\n      swap1\n      pop\n      jump\t// out\n        /* \"#utility.yul\":1677:1776   */\n    tag_63:\n        /* \"#utility.yul\":1729:1735   */\n      0x00\n        /* \"#utility.yul\":1763:1768   */\n      dup2\n        /* \"#utility.yul\":1757:1769   */\n      mload\n        /* \"#utility.yul\":1747:1769   */\n      swap1\n      pop\n        /* \"#utility.yul\":1677:1776   */\n      swap2\n      swap1\n      pop\n      jump\t// out\n        /* \"#utility.yul\":1782:1951   */\n    tag_64:\n        /* \"#utility.yul\":1866:1877   */\n      0x00\n        /* \"#utility.yul\":1900:1906   */\n      dup3\n        /* \"#utility.yul\":1895:1898   */\n      dup3\n        /* \"#utility.yul\":1888:1907   */\n      mstore\n        /* \"#utility.yul\":1940:1944   */\n      0x20\n        /* \"#utility.yul\":1935:1938   */\n      dup3\n        /* \"#utility.yul\":1931:1945   */\n      add\n        /* \"#utility.yul\":1916:1945   */\n      swap1\n      pop\n        /* \"#utility.yul\":1782:1951   */\n      swap3\n      swap2\n      pop\n      pop\n      jump\t// out\n        /* \"#utility.yul\":1957:2203   */\n    tag_65:\n        /* \"#utility.yul\":2038:2039   */\n      0x00\n        /* \"#utility.yul\":2048:2161   */\n    tag_119:\n        /* \"#utility.yul\":2062:2068   */\n      dup4\n        /* \"#utility.yul\":2059:2060   */\n      dup2\n        /* \"#utility.yul\":2056:2069   */\n      lt\n        /* \"#utility.yul\":2048:2161   */\n      iszero\n      tag_121\n      jumpi\n        /* \"#utility.yul\":2147:2148   */\n      dup1\n        /* \"#utility.yul\":2142:2145   */\n      dup3\n        /* \"#utility.yul\":2138:2149   */\n      add\n        /* \"#utility.yul\":2132:2150   */\n      mload\n        /* \"#utility.yul\":2128:2129   */\n      dup2\n        /* \"#utility.yul\":2123:2126   */\n      dup5\n        /* \"#utility.yul\":2119:2130   */\n      add\n        /* \"#utility.yul\":2112:2151   */\n      mstore\n        /* \"#utility.yul\":2084:2086   */\n      0x20\n        /* \"#utility.yul\":2081:2082   */\n      dup2\n        /* \"#utility.yul\":2077:2087   */\n      add\n        /* \"#utility.yul\":2072:2087   */\n      swap1\n      pop\n        /* \"#utility.yul\":2048:2161   */\n      jump(tag_119)\n    tag_121:\n        /* \"#utility.yul\":2195:2196   */\n      0x00\n        /* \"#utility.yul\":2186:2192   */\n      dup5\n        /* \"#utility.yul\":2181:2184   */\n      dup5\n        /* \"#utility.yul\":2177:2193   */\n      add\n        /* \"#utility.yul\":2170:2197   */\n      mstore\n        /* \"#utility.yul\":2019:2203   */\n      pop\n        /* \"#utility.yul\":1957:2203   */\n      pop\n      pop\n      pop\n      jump\t// out\n        /* \"#utility.yul\":2209:2311   */\n    tag_66:\n        /* \"#utility.yul\":2250:2256   */\n      0x00\n        /* \"#utility.yul\":2301:2303   */\n      0x1f\n        /* \"#utility.yul\":2297:2304   */\n      not\n        /* \"#utility.yul\":2292:2294   */\n      0x1f\n        /* \"#utility.yul\":2285:2290   */\n      dup4\n        /* \"#utility.yul\":2281:2295   */\n      add\n        /* \"#utility.yul\":2277:2305   */\n      and\n        /* \"#utility.yul\":2267:2305   */\n      swap1\n      pop\n        /* \"#utility.yul\":2209:2311   */\n      swap2\n      swap1\n      pop\n      jump\t// out\n        /* \"#utility.yul\":2317:2694   */\n    tag_67:\n        /* \"#utility.yul\":2405:2408   */\n      0x00\n        /* \"#utility.yul\":2433:2472   */\n      tag_124\n        /* \"#utility.yul\":2466:2471   */\n      dup3\n        /* \"#utility.yul\":2433:2472   */\n      tag_63\n      jump\t// in\n    tag_124:\n        /* \"#utility.yul\":2488:2559   */\n      tag_125\n        /* \"#utility.yul\":2552:2558   */\n      dup2\n        /* \"#utility.yul\":2547:2550   */\n      dup6\n        /* \"#utility.yul\":2488:2559   */\n      tag_64\n      jump\t// in\n    tag_125:\n        /* \"#utility.yul\":2481:2559   */\n      swap4\n      pop\n        /* \"#utility.yul\":2568:2633   */\n      tag_126\n        /* \"#utility.yul\":2626:2632   */\n      dup2\n        /* \"#utility.yul\":2621:2624   */\n      dup6\n        /* \"#utility.yul\":2614:2618   */\n      0x20\n        /* \"#utility.yul\":2607:2612   */\n      dup7\n        /* \"#utility.yul\":2603:2619   */\n      add\n        /* \"#utility.yul\":2568:2633   */\n      tag_65\n      jump\t// in\n    tag_126:\n        /* \"#utility.yul\":2658:2687   */\n      tag_127\n        /* \"#utility.yul\":2680:2686   */\n      dup2\n        /* \"#utility.yul\":2658:2687   */\n      tag_66\n      jump\t// in\n    tag_127:\n        /* \"#utility.yul\":2653:2656   */\n      dup5\n        /* \"#utility.yul\":2649:2688   */\n      add\n        /* \"#utility.yul\":2642:2688   */\n      swap2\n      pop\n        /* \"#utility.yul\":2409:2694   */\n      pop\n        /* \"#utility.yul\":2317:2694   */\n      swap3\n      swap2\n      pop\n      pop\n      jump\t// out\n        /* \"#utility.yul\":2700:3214   */\n    tag_12:\n        /* \"#utility.yul\":2861:2865   */\n      0x00\n        /* \"#utility.yul\":2899:2901   */\n      0x40\n        /* \"#utility.yul\":2888:2897   */\n      dup3\n        /* \"#utility.yul\":2884:2902   */\n      add\n        /* \"#utility.yul\":2876:2902   */\n      swap1\n      pop\n        /* \"#utility.yul\":2948:2957   */\n      dup2\n        /* \"#utility.yul\":2942:2946   */\n      dup2\n        /* \"#utility.yul\":2938:2958   */\n      sub\n        /* \"#utility.yul\":2934:2935   */\n      0x00\n        /* \"#utility.yul\":2923:2932   */\n      dup4\n        /* \"#utility.yul\":2919:2936   */\n      add\n        /* \"#utility.yul\":2912:2959   */\n      mstore\n        /* \"#utility.yul\":2976:3054   */\n      tag_129\n        /* \"#utility.yul\":3049:3053   */\n      dup2\n        /* \"#utility.yul\":3040:3046   */\n      dup6\n        /* \"#utility.yul\":2976:3054   */\n      tag_67\n      jump\t// in\n    tag_129:\n        /* \"#utility.yul\":2968:3054   */\n      swap1\n      pop\n        /* \"#utility.yul\":3101:3110   */\n      dup2\n        /* \"#utility.yul\":3095:3099   */\n      dup2\n        /* \"#utility.yul\":3091:3111   */\n      sub\n        /* \"#utility.yul\":3086:3088   */\n      0x20\n        /* \"#utility.yul\":3075:3084   */\n      dup4\n        /* \"#utility.yul\":3071:3089   */\n      add\n        /* \"#utility.yul\":3064:3112   */\n      mstore\n        /* \"#utility.yul\":3129:3207   */\n      tag_130\n        /* \"#utility.yul\":3202:3206   */\n      dup2\n        /* \"#utility.yul\":3193:3199   */\n      dup5\n        /* \"#utility.yul\":3129:3207   */\n      tag_67\n      jump\t// in\n    tag_130:\n        /* \"#utility.yul\":3121:3207   */\n      swap1\n      pop\n        /* \"#utility.yul\":2700:3214   */\n      swap4\n      swap3\n      pop\n      pop\n      pop\n      jump\t// out\n        /* \"#utility.yul\":3220:3337   */\n    tag_68:\n        /* \"#utility.yul\":3329:3330   */\n      0x00\n        /* \"#utility.yul\":3326:3327   */\n      dup1\n        /* \"#utility.yul\":3319:3331   */\n      revert\n        /* \"#utility.yul\":3343:3460   */\n    tag_69:\n        /* \"#utility.yul\":3452:3453   */\n      0x00\n        /* \"#utility.yul\":3449:3450   */\n      dup1\n        /* \"#utility.yul\":3442:3454   */\n      revert\n        /* \"#utility.yul\":3466:3646   */\n    tag_70:\n        /* \"#utility.yul\":3514:3591   */\n      0x4e487b7100000000000000000000000000000000000000000000000000000000\n        /* \"#utility.yul\":3511:3512   */\n      0x00\n        /* \"#utility.yul\":3504:3592   */\n      mstore\n        /* \"#utility.yul\":3611:3615   */\n      0x41\n        /* \"#utility.yul\":3608:3609   */\n      0x04\n        /* \"#utility.yul\":3601:3616   */\n      mstore\n        /* \"#utility.yul\":3635:3639   */\n      0x24\n        /* \"#utility.yul\":3632:3633   */\n      0x00\n        /* \"#utility.yul\":3625:3640   */\n      revert\n        /* \"#utility.yul\":3652:3933   */\n    tag_71:\n        /* \"#utility.yul\":3735:3762   */\n      tag_135\n        /* \"#utility.yul\":3757:3761   */\n      dup3\n        /* \"#utility.yul\":3735:3762   */\n      tag_66\n      jump\t// in\n    tag_135:\n        /* \"#utility.yul\":3727:3733   */\n      dup2\n        /* \"#utility.yul\":3723:3763   */\n      add\n        /* \"#utility.yul\":3865:3871   */\n      dup2\n        /* \"#utility.yul\":3853:3863   */\n      dup2\n        /* \"#utility.yul\":3850:3872   */\n      lt\n        /* \"#utility.yul\":3829:3847   */\n      0xffffffffffffffff\n        /* \"#utility.yul\":3817:3827   */\n      dup3\n        /* \"#utility.yul\":3814:3848   */\n      gt\n        /* \"#utility.yul\":3811:3873   */\n      or\n        /* \"#utility.yul\":3808:3896   */\n      iszero\n      tag_136\n      jumpi\n        /* \"#utility.yul\":3876:3894   */\n      tag_137\n      tag_70\n      jump\t// in\n    tag_137:\n        /* \"#utility.yul\":3808:3896   */\n    tag_136:\n        /* \"#utility.yul\":3916:3926   */\n      dup1\n        /* \"#utility.yul\":3912:3914   */\n      0x40\n        /* \"#utility.yul\":3905:3927   */\n      mstore\n        /* \"#utility.yul\":3695:3933   */\n      pop\n        /* \"#utility.yul\":3652:3933   */\n      pop\n      pop\n      jump\t// out\n        /* \"#utility.yul\":3939:4068   */\n    tag_72:\n        /* \"#utility.yul\":3973:3979   */\n      0x00\n        /* \"#utility.yul\":4000:4020   */\n      tag_139\n      tag_53\n      jump\t// in\n    tag_139:\n        /* \"#utility.yul\":3990:4020   */\n      swap1\n      pop\n        /* \"#utility.yul\":4029:4062   */\n      tag_140\n        /* \"#utility.yul\":4057:4061   */\n      dup3\n        /* \"#utility.yul\":4049:4055   */\n      dup3\n        /* \"#utility.yul\":4029:4062   */\n      tag_71\n      jump\t// in\n    tag_140:\n        /* \"#utility.yul\":3939:4068   */\n      swap2\n      swap1\n      pop\n      jump\t// out\n        /* \"#utility.yul\":4074:4382   */\n    tag_73:\n        /* \"#utility.yul\":4136:4140   */\n      0x00\n        /* \"#utility.yul\":4226:4244   */\n      0xffffffffffffffff\n        /* \"#utility.yul\":4218:4224   */\n      dup3\n        /* \"#utility.yul\":4215:4245   */\n      gt\n        /* \"#utility.yul\":4212:4268   */\n      iszero\n      tag_142\n      jumpi\n        /* \"#utility.yul\":4248:4266   */\n      tag_143\n      tag_70\n      jump\t// in\n    tag_143:\n        /* \"#utility.yul\":4212:4268   */\n    tag_142:\n        /* \"#utility.yul\":4286:4315   */\n      tag_144\n        /* \"#utility.yul\":4308:4314   */\n      dup3\n        /* \"#utility.yul\":4286:4315   */\n      tag_66\n      jump\t// in\n    tag_144:\n        /* \"#utility.yul\":4278:4315   */\n      swap1\n      pop\n        /* \"#utility.yul\":4370:4374   */\n      0x20\n        /* \"#utility.yul\":4364:4368   */\n      dup2\n        /* \"#utility.yul\":4360:4375   */\n      add\n        /* \"#utility.yul\":4352:4375   */\n      swap1\n      pop\n        /* \"#utility.yul\":4074:4382   */\n      swap2\n      swap1\n      pop\n      jump\t// out\n        /* \"#utility.yul\":4388:4534   */\n    tag_74:\n        /* \"#utility.yul\":4485:4491   */\n      dup3\n        /* \"#utility.yul\":4480:4483   */\n      dup2\n        /* \"#utility.yul\":4475:4478   */\n      dup4\n        /* \"#utility.yul\":4462:4492   */\n      calldatacopy\n        /* \"#utility.yul\":4526:4527   */\n      0x00\n        /* \"#utility.yul\":4517:4523   */\n      dup4\n        /* \"#utility.yul\":4512:4515   */\n      dup4\n        /* \"#utility.yul\":4508:4524   */\n      add\n        /* \"#utility.yul\":4501:4528   */\n      mstore\n        /* \"#utility.yul\":4388:4534   */\n      pop\n      pop\n      pop\n      jump\t// out\n        /* \"#utility.yul\":4540:4965   */\n    tag_75:\n        /* \"#utility.yul\":4618:4623   */\n      0x00\n        /* \"#utility.yul\":4643:4709   */\n      tag_147\n        /* \"#utility.yul\":4659:4708   */\n      tag_148\n        /* \"#utility.yul\":4701:4707   */\n      dup5\n        /* \"#utility.yul\":4659:4708   */\n      tag_73\n      jump\t// in\n    tag_148:\n        /* \"#utility.yul\":4643:4709   */\n      tag_72\n      jump\t// in\n    tag_147:\n        /* \"#utility.yul\":4634:4709   */\n      swap1\n      pop\n        /* \"#utility.yul\":4732:4738   */\n      dup3\n        /* \"#utility.yul\":4725:4730   */\n      dup2\n        /* \"#utility.yul\":4718:4739   */\n      mstore\n        /* \"#utility.yul\":4770:4774   */\n      0x20\n        /* \"#utility.yul\":4763:4768   */\n      dup2\n        /* \"#utility.yul\":4759:4775   */\n      add\n        /* \"#utility.yul\":4808:4811   */\n      dup5\n        /* \"#utility.yul\":4799:4805   */\n      dup5\n        /* \"#utility.yul\":4794:4797   */\n      dup5\n        /* \"#utility.yul\":4790:4806   */\n      add\n        /* \"#utility.yul\":4787:4812   */\n      gt\n        /* \"#utility.yul\":4784:4896   */\n      iszero\n      tag_149\n      jumpi\n        /* \"#utility.yul\":4815:4894   */\n      tag_150\n      tag_69\n      jump\t// in\n    tag_150:\n        /* \"#utility.yul\":4784:4896   */\n    tag_149:\n        /* \"#utility.yul\":4905:4959   */\n      tag_151\n        /* \"#utility.yul\":4952:4958   */\n      dup5\n        /* \"#utility.yul\":4947:4950   */\n      dup3\n        /* \"#utility.yul\":4942:4945   */\n      dup6\n        /* \"#utility.yul\":4905:4959   */\n      tag_74\n      jump\t// in\n    tag_151:\n        /* \"#utility.yul\":4624:4965   */\n      pop\n        /* \"#utility.yul\":4540:4965   */\n      swap4\n      swap3\n      pop\n      pop\n      pop\n      jump\t// out\n        /* \"#utility.yul\":4985:5325   */\n    tag_76:\n        /* \"#utility.yul\":5041:5046   */\n      0x00\n        /* \"#utility.yul\":5090:5093   */\n      dup3\n        /* \"#utility.yul\":5083:5087   */\n      0x1f\n        /* \"#utility.yul\":5075:5081   */\n      dup4\n        /* \"#utility.yul\":5071:5088   */\n      add\n        /* \"#utility.yul\":5067:5094   */\n      slt\n        /* \"#utility.yul\":5057:5179   */\n      tag_153\n      jumpi\n        /* \"#utility.yul\":5098:5177   */\n      tag_154\n      tag_68\n      jump\t// in\n    tag_154:\n        /* \"#utility.yul\":5057:5179   */\n    tag_153:\n        /* \"#utility.yul\":5215:5221   */\n      dup2\n        /* \"#utility.yul\":5202:5222   */\n      calldataload\n        /* \"#utility.yul\":5240:5319   */\n      tag_155\n        /* \"#utility.yul\":5315:5318   */\n      dup5\n        /* \"#utility.yul\":5307:5313   */\n      dup3\n        /* \"#utility.yul\":5300:5304   */\n      0x20\n        /* \"#utility.yul\":5292:5298   */\n      dup7\n        /* \"#utility.yul\":5288:5305   */\n      add\n        /* \"#utility.yul\":5240:5319   */\n      tag_75\n      jump\t// in\n    tag_155:\n        /* \"#utility.yul\":5231:5319   */\n      swap2\n      pop\n        /* \"#utility.yul\":5047:5325   */\n      pop\n        /* \"#utility.yul\":4985:5325   */\n      swap3\n      swap2\n      pop\n      pop\n      jump\t// out\n        /* \"#utility.yul\":5331:6310   */\n    tag_15:\n        /* \"#utility.yul\":5428:5434   */\n      0x00\n        /* \"#utility.yul\":5436:5442   */\n      dup1\n        /* \"#utility.yul\":5444:5450   */\n      0x00\n        /* \"#utility.yul\":5493:5495   */\n      0x60\n        /* \"#utility.yul\":5481:5490   */\n      dup5\n        /* \"#utility.yul\":5472:5479   */\n      dup7\n        /* \"#utility.yul\":5468:5491   */\n      sub\n        /* \"#utility.yul\":5464:5496   */\n      slt\n        /* \"#utility.yul\":5461:5580   */\n      iszero\n      tag_157\n      jumpi\n        /* \"#utility.yul\":5499:5578   */\n      tag_158\n      tag_54\n      jump\t// in\n    tag_158:\n        /* \"#utility.yul\":5461:5580   */\n    tag_157:\n        /* \"#utility.yul\":5619:5620   */\n      0x00\n        /* \"#utility.yul\":5644:5697   */\n      tag_159\n        /* \"#utility.yul\":5689:5696   */\n      dup7\n        /* \"#utility.yul\":5680:5686   */\n      dup3\n        /* \"#utility.yul\":5669:5678   */\n      dup8\n        /* \"#utility.yul\":5665:5687   */\n      add\n        /* \"#utility.yul\":5644:5697   */\n      tag_62\n      jump\t// in\n    tag_159:\n        /* \"#utility.yul\":5634:5697   */\n      swap4\n      pop\n        /* \"#utility.yul\":5590:5707   */\n      pop\n        /* \"#utility.yul\":5774:5776   */\n      0x20\n        /* \"#utility.yul\":5763:5772   */\n      dup5\n        /* \"#utility.yul\":5759:5777   */\n      add\n        /* \"#utility.yul\":5746:5778   */\n      calldataload\n        /* \"#utility.yul\":5805:5823   */\n      0xffffffffffffffff\n        /* \"#utility.yul\":5797:5803   */\n      dup2\n        /* \"#utility.yul\":5794:5824   */\n      gt\n        /* \"#utility.yul\":5791:5908   */\n      iszero\n      tag_160\n      jumpi\n        /* \"#utility.yul\":5827:5906   */\n      tag_161\n      tag_55\n      jump\t// in\n    tag_161:\n        /* \"#utility.yul\":5791:5908   */\n    tag_160:\n        /* \"#utility.yul\":5932:5995   */\n      tag_162\n        /* \"#utility.yul\":5987:5994   */\n      dup7\n        /* \"#utility.yul\":5978:5984   */\n      dup3\n        /* \"#utility.yul\":5967:5976   */\n      dup8\n        /* \"#utility.yul\":5963:5985   */\n      add\n        /* \"#utility.yul\":5932:5995   */\n      tag_76\n      jump\t// in\n    tag_162:\n        /* \"#utility.yul\":5922:5995   */\n      swap3\n      pop\n        /* \"#utility.yul\":5717:6005   */\n      pop\n        /* \"#utility.yul\":6072:6074   */\n      0x40\n        /* \"#utility.yul\":6061:6070   */\n      dup5\n        /* \"#utility.yul\":6057:6075   */\n      add\n        /* \"#utility.yul\":6044:6076   */\n      calldataload\n        /* \"#utility.yul\":6103:6121   */\n      0xffffffffffffffff\n        /* \"#utility.yul\":6095:6101   */\n      dup2\n        /* \"#utility.yul\":6092:6122   */\n      gt\n        /* \"#utility.yul\":6089:6206   */\n      iszero\n      tag_163\n      jumpi\n        /* \"#utility.yul\":6125:6204   */\n      tag_164\n      tag_55\n      jump\t// in\n    tag_164:\n        /* \"#utility.yul\":6089:6206   */\n    tag_163:\n        /* \"#utility.yul\":6230:6293   */\n      tag_165\n        /* \"#utility.yul\":6285:6292   */\n      dup7\n        /* \"#utility.yul\":6276:6282   */\n      dup3\n        /* \"#utility.yul\":6265:6274   */\n      dup8\n        /* \"#utility.yul\":6261:6283   */\n      add\n        /* \"#utility.yul\":6230:6293   */\n      tag_76\n      jump\t// in\n    tag_165:\n        /* \"#utility.yul\":6220:6293   */\n      swap2\n      pop\n        /* \"#utility.yul\":6015:6303   */\n      pop\n        /* \"#utility.yul\":5331:6310   */\n      swap3\n      pop\n      swap3\n      pop\n      swap3\n      jump\t// out\n        /* \"#utility.yul\":6316:6645   */\n    tag_19:\n        /* \"#utility.yul\":6375:6381   */\n      0x00\n        /* \"#utility.yul\":6424:6426   */\n      0x20\n        /* \"#utility.yul\":6412:6421   */\n      dup3\n        /* \"#utility.yul\":6403:6410   */\n      dup5\n        /* \"#utility.yul\":6399:6422   */\n      sub\n        /* \"#utility.yul\":6395:6427   */\n      slt\n        /* \"#utility.yul\":6392:6511   */\n      iszero\n      tag_167\n      jumpi\n        /* \"#utility.yul\":6430:6509   */\n      tag_168\n      tag_54\n      jump\t// in\n    tag_168:\n        /* \"#utility.yul\":6392:6511   */\n    tag_167:\n        /* \"#utility.yul\":6550:6551   */\n      0x00\n        /* \"#utility.yul\":6575:6628   */\n      tag_169\n        /* \"#utility.yul\":6620:6627   */\n      dup5\n        /* \"#utility.yul\":6611:6617   */\n      dup3\n        /* \"#utility.yul\":6600:6609   */\n      dup6\n        /* \"#utility.yul\":6596:6618   */\n      add\n        /* \"#utility.yul\":6575:6628   */\n      tag_62\n      jump\t// in\n    tag_169:\n        /* \"#utility.yul\":6565:6628   */\n      swap2\n      pop\n        /* \"#utility.yul\":6521:6638   */\n      pop\n        /* \"#utility.yul\":6316:6645   */\n      swap3\n      swap2\n      pop\n      pop\n      jump\t// out\n        /* \"#utility.yul\":6651:6831   */\n    tag_77:\n        /* \"#utility.yul\":6699:6776   */\n      0x4e487b7100000000000000000000000000000000000000000000000000000000\n        /* \"#utility.yul\":6696:6697   */\n      0x00\n        /* \"#utility.yul\":6689:6777   */\n      mstore\n        /* \"#utility.yul\":6796:6800   */\n      0x22\n        /* \"#utility.yul\":6793:6794   */\n      0x04\n        /* \"#utility.yul\":6786:6801   */\n      mstore\n        /* \"#utility.yul\":6820:6824   */\n      0x24\n        /* \"#utility.yul\":6817:6818   */\n      0x00\n        /* \"#utility.yul\":6810:6825   */\n      revert\n        /* \"#utility.yul\":6837:7157   */\n    tag_26:\n        /* \"#utility.yul\":6881:6887   */\n      0x00\n        /* \"#utility.yul\":6918:6919   */\n      0x02\n        /* \"#utility.yul\":6912:6916   */\n      dup3\n        /* \"#utility.yul\":6908:6920   */\n      div\n        /* \"#utility.yul\":6898:6920   */\n      swap1\n      pop\n        /* \"#utility.yul\":6965:6966   */\n      0x01\n        /* \"#utility.yul\":6959:6963   */\n      dup3\n        /* \"#utility.yul\":6955:6967   */\n      and\n        /* \"#utility.yul\":6986:7004   */\n      dup1\n        /* \"#utility.yul\":6976:7057   */\n      tag_172\n      jumpi\n        /* \"#utility.yul\":7042:7046   */\n      0x7f\n        /* \"#utility.yul\":7034:7040   */\n      dup3\n        /* \"#utility.yul\":7030:7047   */\n      and\n        /* \"#utility.yul\":7020:7047   */\n      swap2\n      pop\n        /* \"#utility.yul\":6976:7057   */\n    tag_172:\n        /* \"#utility.yul\":7104:7106   */\n      0x20\n        /* \"#utility.yul\":7096:7102   */\n      dup3\n        /* \"#utility.yul\":7093:7107   */\n      lt\n        /* \"#utility.yul\":7073:7091   */\n      dup2\n        /* \"#utility.yul\":7070:7108   */\n      sub\n        /* \"#utility.yul\":7067:7151   */\n      tag_173\n      jumpi\n        /* \"#utility.yul\":7123:7141   */\n      tag_174\n      tag_77\n      jump\t// in\n    tag_174:\n        /* \"#utility.yul\":7067:7151   */\n    tag_173:\n        /* \"#utility.yul\":6888:7157   */\n      pop\n        /* \"#utility.yul\":6837:7157   */\n      swap2\n      swap1\n      pop\n      jump\t// out\n        /* \"#utility.yul\":7163:7304   */\n    tag_78:\n        /* \"#utility.yul\":7212:7216   */\n      0x00\n        /* \"#utility.yul\":7235:7238   */\n      dup2\n        /* \"#utility.yul\":7227:7238   */\n      swap1\n      pop\n        /* \"#utility.yul\":7258:7261   */\n      dup2\n        /* \"#utility.yul\":7255:7256   */\n      0x00\n        /* \"#utility.yul\":7248:7262   */\n      mstore\n        /* \"#utility.yul\":7292:7296   */\n      0x20\n        /* \"#utility.yul\":7289:7290   */\n      0x00\n        /* \"#utility.yul\":7279:7297   */\n      keccak256\n        /* \"#utility.yul\":7271:7297   */\n      swap1\n      pop\n        /* \"#utility.yul\":7163:7304   */\n      swap2\n      swap1\n      pop\n      jump\t// out\n        /* \"#utility.yul\":7310:7403   */\n    tag_79:\n        /* \"#utility.yul\":7347:7353   */\n      0x00\n        /* \"#utility.yul\":7394:7396   */\n      0x20\n        /* \"#utility.yul\":7389:7391   */\n      0x1f\n        /* \"#utility.yul\":7382:7387   */\n      dup4\n        /* \"#utility.yul\":7378:7392   */\n      add\n        /* \"#utility.yul\":7374:7397   */\n      div\n        /* \"#utility.yul\":7364:7397   */\n      swap1\n      pop\n        /* \"#utility.yul\":7310:7403   */\n      swap2\n      swap1\n      pop\n      jump\t// out\n        /* \"#utility.yul\":7409:7516   */\n    tag_80:\n        /* \"#utility.yul\":7453:7461   */\n      0x00\n        /* \"#utility.yul\":7503:7508   */\n      dup3\n        /* \"#utility.yul\":7497:7501   */\n      dup3\n        /* \"#utility.yul\":7493:7509   */\n      shl\n        /* \"#utility.yul\":7472:7509   */\n      swap1\n      pop\n        /* \"#utility.yul\":7409:7516   */\n      swap3\n      swap2\n      pop\n      pop\n      jump\t// out\n        /* \"#utility.yul\":7522:7915   */\n    tag_81:\n        /* \"#utility.yul\":7591:7597   */\n      0x00\n        /* \"#utility.yul\":7641:7642   */\n      0x08\n        /* \"#utility.yul\":7629:7639   */\n      dup4\n        /* \"#utility.yul\":7625:7643   */\n      mul\n        /* \"#utility.yul\":7664:7761   */\n      tag_179\n        /* \"#utility.yul\":7694:7760   */\n      0xffffffffffffffffffffffffffffffffffffffffffffffffffffffffffffffff\n        /* \"#utility.yul\":7683:7692   */\n      dup3\n        /* \"#utility.yul\":7664:7761   */\n      tag_80\n      jump\t// in\n    tag_179:\n        /* \"#utility.yul\":7782:7821   */\n      tag_180\n        /* \"#utility.yul\":7812:7820   */\n      dup7\n        /* \"#utility.yul\":7801:7810   */\n      dup4\n        /* \"#utility.yul\":7782:7821   */\n      tag_80\n      jump\t// in\n    tag_180:\n        /* \"#utility.yul\":7770:7821   */\n      swap6\n      pop\n        /* \"#utility.yul\":7854:7858   */\n      dup1\n        /* \"#utility.yul\":7850:7859   */\n      not\n        /* \"#utility.yul\":7843:7848   */\n      dup5\n        /* \"#utility.yul\":7839:7860   */\n      and\n        /* \"#utility.yul\":7830:7860   */\n      swap4\n      pop\n        /* \"#utility.yul\":7903:7907   */\n      dup1\n        /* \"#utility.yul\":7893:7901   */\n      dup7\n        /* \"#utility.yul\":7889:7908   */\n      and\n        /* \"#utility.yul\":7882:7887   */\n      dup5\n        /* \"#utility.yul\":7879:7909   */\n      or\n        /* \"#utility.yul\":7869:7909   */\n      swap3\n      pop\n        /* \"#utility.yul\":7598:7915   */\n      pop\n      pop\n        /* \"#utility.yul\":7522:7915   */\n      swap4\n      swap3\n      pop\n      pop\n      pop\n      jump\t// out\n        /* \"#utility.yul\":7921:7981   */\n    tag_82:\n        /* \"#utility.yul\":7949:7952   */\n      0x00\n        /* \"#utility.yul\":7970:7975   */\n      dup2\n        /* \"#utility.yul\":7963:7975   */\n      swap1\n      pop\n        /* \"#utility.yul\":7921:7981   */\n      swap2\n      swap1\n      pop\n      jump\t// out\n        /* \"#utility.yul\":7987:8129   */\n    tag_83:\n        /* \"#utility.yul\":8037:8046   */\n      0x00\n        /* \"#utility.yul\":8070:8123   */\n      tag_183\n        /* \"#utility.yul\":8088:8122   */\n      tag_184\n        /* \"#utility.yul\":8097:8121   */\n      tag_185\n        /* \"#utility.yul\":8115:8120   */\n      dup5\n        /* \"#utility.yul\":8097:8121   */\n      tag_60\n      jump\t// in\n    tag_185:\n        /* \"#utility.yul\":8088:8122   */\n      tag_82\n      jump\t// in\n    tag_184:\n        /* \"#utility.yul\":8070:8123   */\n      tag_60\n      jump\t// in\n    tag_183:\n        /* \"#utility.yul\":8057:8123   */\n      swap1\n      pop\n        /* \"#utility.yul\":7987:8129   */\n      swap2\n      swap1\n      pop\n      jump\t// out\n        /* \"#utility.yul\":8135:8210   */\n    tag_84:\n        /* \"#utility.yul\":8178:8181   */\n      0x00\n        /* \"#utility.yul\":8199:8204   */\n      dup2\n        /* \"#utility.yul\":8192:8204   */\n      swap1\n      pop\n        /* \"#utility.yul\":8135:8210   */\n      swap2\n      swap1\n      pop\n      jump\t// out\n        /* \"#utility.yul\":8216:8485   */\n    tag_85:\n        /* \"#utility.yul\":8326:8365   */\n      tag_188\n        /* \"#utility.yul\":8357:8364   */\n      dup4\n        /* \"#utility.yul\":8326:8365   */\n      tag_83\n      jump\t// in\n    tag_188:\n        /* \"#utility.yul\":8387:8478   */\n      tag_189\n        /* \"#utility.yul\":8436:8477   */\n      tag_190\n        /* \"#utility.yul\":8460:8476   */\n      dup3\n        /* \"#utility.yul\":8436:8477   */\n      tag_84\n      jump\t// in\n    tag_190:\n        /* \"#utility.yul\":8428:8434   */\n      dup5\n        /* \"#utility.yul\":8421:8425   */\n      dup5\n        /* \"#utility.yul\":8415:8426   */\n      sload\n        /* \"#utility.yul\":8387:8478   */\n      tag_81\n      jump\t// in\n    tag_189:\n        /* \"#utility.yul\":8381:8385   */\n      dup3\n        /* \"#utility.yul\":8374:8479   */\n      sstore\n        /* \"#utility.yul\":8292:8485   */\n      pop\n        /* \"#utility.yul\":8216:8485   */\n      pop\n      pop\n      pop\n      jump\t// out\n        /* \"#utility.yul\":8491:8564   */\n    tag_86:\n        /* \"#utility.yul\":8536:8539   */\n      0x00\n        /* \"#utility.yul\":8491:8564   */\n      swap1\n      jump\t// out\n        /* \"#utility.yul\":8570:8759   */\n    tag_87:\n        /* \"#utility.yul\":8647:8679   */\n      tag_193\n      tag_86\n      jump\t// in\n    tag_193:\n        /* \"#utility.yul\":8688:8753   */\n      tag_194\n        /* \"#utility.yul\":8746:8752   */\n      dup2\n        /* \"#utility.yul\":8738:8744   */\n      dup5\n        /* \"#utility.yul\":8732:8736   */\n      dup5\n        /* \"#utility.yul\":8688:8753   */\n      tag_85\n      jump\t// in\n    tag_194:\n        /* \"#utility.yul\":8623:8759   */\n      pop\n        /* \"#utility.yul\":8570:8759   */\n      pop\n      pop\n      jump\t// out\n        /* \"#utility.yul\":8765:8951   */\n    tag_88:\n        /* \"#utility.yul\":8825:8945   */\n    tag_196:\n        /* \"#utility.yul\":8842:8845   */\n      dup2\n        /* \"#utility.yul\":8835:8840   */\n      dup2\n        /* \"#utility.yul\":8832:8846   */\n      lt\n        /* \"#utility.yul\":8825:8945   */\n      iszero\n      tag_198\n      jumpi\n        /* \"#utility.yul\":8896:8935   */\n      tag_199\n        /* \"#utility.yul\":8933:8934   */\n      0x00\n        /* \"#utility.yul\":8926:8931   */\n      dup3\n        /* \"#utility.yul\":8896:8935   */\n      tag_87\n      jump\t// in\n    tag_199:\n        /* \"#utility.yul\":8869:8870   */\n      0x01\n        /* \"#utility.yul\":8862:8867   */\n      dup2\n        /* \"#utility.yul\":8858:8871   */\n      add\n        /* \"#utility.yul\":8849:8871   */\n      swap1\n      pop\n        /* \"#utility.yul\":8825:8945   */\n      jump(tag_196)\n    tag_198:\n        /* \"#utility.yul\":8765:8951   */\n      pop\n      pop\n      jump\t// out\n        /* \"#utility.yul\":8957:9500   */\n    tag_89:\n        /* \"#utility.yul\":9058:9060   */\n      0x1f\n        /* \"#utility.yul\":9053:9056   */\n      dup3\n        /* \"#utility.yul\":9050:9061   */\n      gt\n        /* \"#utility.yul\":9047:9493   */\n      iszero\n      tag_201\n      jumpi\n        /* \"#utility.yul\":9092:9130   */\n      tag_202\n        /* \"#utility.yul\":9124:9129   */\n      dup2\n        /* \"#utility.yul\":9092:9130   */\n      tag_78\n      jump\t// in\n    tag_202:\n        /* \"#utility.yul\":9176:9205   */\n      tag_203\n        /* \"#utility.yul\":9194:9204   */\n      dup5\n        /* \"#utility.yul\":9176:9205   */\n      tag_79\n      jump\t// in\n    tag_203:\n        /* \"#utility.yul\":9166:9174   */\n      dup2\n        /* \"#utility.yul\":9162:9206   */\n      add\n        /* \"#utility.yul\":9359:9361   */\n      0x20\n        /* \"#utility.yul\":9347:9357   */\n      dup6\n        /* \"#utility.yul\":9344:9362   */\n      lt\n        /* \"#utility.yul\":9341:9390   */\n      iszero\n      tag_204\n      jumpi\n        /* \"#utility.yul\":9380:9388   */\n      dup2\n        /* \"#utility.yul\":9365:9388   */\n      swap1\n      pop\n        /* \"#utility.yul\":9341:9390   */\n    tag_204:\n        /* \"#utility.yul\":9403:9483   */\n      tag_205\n        /* \"#utility.yul\":9459:9481   */\n      tag_206\n        /* \"#utility.yul\":9477:9480   */\n      dup6\n        /* \"#utility.yul\":9459:9481   */\n      tag_79\n      jump\t// in\n    tag_206:\n        /* \"#utility.yul\":9449:9457   */\n      dup4\n        /* \"#utility.yul\":9445:9482   */\n      add\n        /* \"#utility.yul\":9432:9443   */\n      dup3\n        /* \"#utility.yul\":9403:9483   */\n      tag_88\n      jump\t// in\n    tag_205:\n        /* \"#utility.yul\":9062:9493   */\n      pop\n      pop\n        /* \"#utility.yul\":9047:9493   */\n    tag_201:\n        /* \"#utility.yul\":8957:9500   */\n      pop\n      pop\n      pop\n      jump\t// out\n        /* \"#utility.yul\":9506:9623   */\n    tag_90:\n        /* \"#utility.yul\":9560:9568   */\n      0x00\n        /* \"#utility.yul\":9610:9615   */\n      dup3\n        /* \"#utility.yul\":9604:9608   */\n      dup3\n        /* \"#utility.yul\":9600:9616   */\n      shr\n        /* \"#utility.yul\":9579:9616   */\n      swap1\n      pop\n        /* \"#utility.yul\":9506:9623   */\n      swap3\n      swap2\n      pop\n      pop\n      jump\t// out\n        /* \"#utility.yul\":9629:9798   */\n    tag_91:\n        /* \"#utility.yul\":9673:9679   */\n      0x00\n        /* \"#utility.yul\":9706:9757   */\n      tag_209\n        /* \"#utility.yul\":9754:9755   */\n      0x00\n        /* \"#utility.yul\":9750:9756   */\n      not\n        /* \"#utility.yul\":9742:9747   */\n      dup5\n        /* \"#utility.yul\":9739:9740   */\n      0x08\n        /* \"#utility.yul\":9735:9748   */\n      mul\n        /* \"#utility.yul\":9706:9757   */\n      tag_90\n      jump\t// in\n    tag_209:\n        /* \"#utility.yul\":9702:9758   */\n      not\n        /* \"#utility.yul\":9787:9791   */\n      dup1\n        /* \"#utility.yul\":9781:9785   */\n      dup4\n        /* \"#utility.yul\":9777:9792   */\n      and\n        /* \"#utility.yul\":9767:9792   */\n      swap2\n      pop\n        /* \"#utility.yul\":9680:9798   */\n      pop\n        /* \"#utility.yul\":9629:9798   */\n      swap3\n      swap2\n      pop\n      pop\n      jump\t// out\n        /* \"#utility.yul\":9803:10098   */\n    tag_92:\n        /* \"#utility.yul\":9879:9883   */\n      0x00\n        /* \"#utility.yul\":10025:10054   */\n      tag_211\n        /* \"#utility.yul\":10050:10053   */\n      dup4\n        /* \"#utility.yul\":10044:10048   */\n      dup4\n        /* \"#utility.yul\":10025:10054   */\n      tag_91\n      jump\t// in\n    tag_211:\n        /* \"#utility.yul\":10017:10054   */\n      swap2\n      pop\n        /* \"#utility.yul\":10087:10090   */\n      dup3\n        /* \"#utility.yul\":10084:10085   */\n      0x02\n        /* \"#utility.yul\":10080:10091   */\n      mul\n        /* \"#utility.yul\":10074:10078   */\n      dup3\n        /* \"#utility.yul\":10071:10092   */\n      or\n        /* \"#utility.yul\":10063:10092   */\n      swap1\n      pop\n        /* \"#utility.yul\":9803:10098   */\n      swap3\n      swap2\n      pop\n      pop\n      jump\t// out\n        /* \"#utility.yul\":10103:11498   */\n    tag_38:\n        /* \"#utility.yul\":10220:10257   */\n      tag_213\n        /* \"#utility.yul\":10253:10256   */\n      dup3\n        /* \"#utility.yul\":10220:10257   */\n      tag_63\n      jump\t// in\n    tag_213:\n        /* \"#utility.yul\":10322:10340   */\n      0xffffffffffffffff\n        /* \"#utility.yul\":10314:10320   */\n      dup2\n        /* \"#utility.yul\":10311:10341   */\n      gt\n        /* \"#utility.yul\":10308:10364   */\n      iszero\n      tag_214\n      jumpi\n        /* \"#utility.yul\":10344:10362   */\n      tag_215\n      tag_70\n      jump\t// in\n    tag_215:\n        /* \"#utility.yul\":10308:10364   */\n    tag_214:\n        /* \"#utility.yul\":10388:10426   */\n      tag_216\n        /* \"#utility.yul\":10420:10424   */\n      dup3\n        /* \"#utility.yul\":10414:10425   */\n      sload\n        /* \"#utility.yul\":10388:10426   */\n      tag_26\n      jump\t// in\n    tag_216:\n        /* \"#utility.yul\":10473:10540   */\n      tag_217\n        /* \"#utility.yul\":10533:10539   */\n      dup3\n        /* \"#utility.yul\":10525:10531   */\n      dup3\n        /* \"#utility.yul\":10519:10523   */\n      dup6\n        /* \"#utility.yul\":10473:10540   */\n      tag_89\n      jump\t// in\n    tag_217:\n        /* \"#utility.yul\":10567:10568   */\n      0x00\n        /* \"#utility.yul\":10591:10595   */\n      0x20\n        /* \"#utility.yul\":10578:10595   */\n      swap1\n      pop\n        /* \"#utility.yul\":10623:10625   */\n      0x1f\n        /* \"#utility.yul\":10615:10621   */\n      dup4\n        /* \"#utility.yul\":10612:10626   */\n      gt\n        /* \"#utility.yul\":10640:10641   */\n      0x01\n        /* \"#utility.yul\":10635:11253   */\n      dup2\n      eq\n      tag_219\n      jumpi\n        /* \"#utility.yul\":11297:11298   */\n      0x00\n        /* \"#utility.yul\":11314:11320   */\n      dup5\n        /* \"#utility.yul\":11311:11388   */\n      iszero\n      tag_220\n      jumpi\n        /* \"#utility.yul\":11363:11372   */\n      dup3\n        /* \"#utility.yul\":11358:11361   */\n      dup8\n        /* \"#utility.yul\":11354:11373   */\n      add\n        /* \"#utility.yul\":11348:11374   */\n      mload\n        /* \"#utility.yul\":11339:11374   */\n      swap1\n      pop\n        /* \"#utility.yul\":11311:11388   */\n    tag_220:\n        /* \"#utility.yul\":11414:11481   */\n      tag_221\n        /* \"#utility.yul\":11474:11480   */\n      dup6\n        /* \"#utility.yul\":11467:11472   */\n      dup3\n        /* \"#utility.yul\":11414:11481   */\n      tag_92\n      jump\t// in\n    tag_221:\n        /* \"#utility.yul\":11408:11412   */\n      dup7\n        /* \"#utility.yul\":11401:11482   */\n      sstore\n        /* \"#utility.yul\":11270:11492   */\n      pop\n        /* \"#utility.yul\":10605:11492   */\n      jump(tag_218)\n        /* \"#utility.yul\":10635:11253   */\n    tag_219:\n        /* \"#utility.yul\":10687:10691   */\n      0x1f\n        /* \"#utility.yul\":10683:10692   */\n      not\n        /* \"#utility.yul\":10675:10681   */\n      dup5\n        /* \"#utility.yul\":10671:10693   */\n      and\n        /* \"#utility.yul\":10721:10758   */\n      tag_222\n        /* \"#utility.yul\":10753:10757   */\n      dup7\n        /* \"#utility.yul\":10721:10758   */\n      tag_78\n      jump\t// in\n    tag_222:\n        /* \"#utility.yul\":10780:10781   */\n      0x00\n        /* \"#utility.yul\":10794:11002   */\n    tag_223:\n        /* \"#utility.yul\":10808:10815   */\n      dup3\n        /* \"#utility.yul\":10805:10806   */\n      dup2\n        /* \"#utility.yul\":10802:10816   */\n      lt\n        /* \"#utility.yul\":10794:11002   */\n      iszero\n      tag_225\n      jumpi\n        /* \"#utility.yul\":10887:10896   */\n      dup5\n        /* \"#utility.yul\":10882:10885   */\n      dup10\n        /* \"#utility.yul\":10878:10897   */\n      add\n        /* \"#utility.yul\":10872:10898   */\n      mload\n        /* \"#utility.yul\":10864:10870   */\n      dup3\n        /* \"#utility.yul\":10857:10899   */\n      sstore\n        /* \"#utility.yul\":10938:10939   */\n      0x01\n        /* \"#utility.yul\":10930:10936   */\n      dup3\n        /* \"#utility.yul\":10926:10940   */\n      add\n        /* \"#utility.yul\":10916:10940   */\n      swap2\n      pop\n        /* \"#utility.yul\":10985:10987   */\n      0x20\n        /* \"#utility.yul\":10974:10983   */\n      dup6\n        /* \"#utility.yul\":10970:10988   */\n      add\n        /* \"#utility.yul\":10957:10988   */\n      swap5\n      pop\n        /* \"#utility.yul\":10831:10835   */\n      0x20\n        /* \"#utility.yul\":10828:10829   */\n      dup2\n        /* \"#utility.yul\":10824:10836   */\n      add\n        /* \"#utility.yul\":10819:10836   */\n      swap1\n      pop\n        /* \"#utility.yul\":10794:11002   */\n      jump(tag_223)\n    tag_225:\n        /* \"#utility.yul\":11030:11036   */\n      dup7\n        /* \"#utility.yul\":11021:11028   */\n      dup4\n        /* \"#utility.yul\":11018:11037   */\n      lt\n        /* \"#utility.yul\":11015:11194   */\n      iszero\n      tag_226\n      jumpi\n        /* \"#utility.yul\":11088:11097   */\n      dup5\n        /* \"#utility.yul\":11083:11086   */\n      dup10\n        /* \"#utility.yul\":11079:11098   */\n      add\n        /* \"#utility.yul\":11073:11099   */\n      mload\n        /* \"#utility.yul\":11131:11179   */\n      tag_227\n        /* \"#utility.yul\":11173:11177   */\n      0x1f\n        /* \"#utility.yul\":11165:11171   */\n      dup10\n        /* \"#utility.yul\":11161:11178   */\n      and\n        /* \"#utility.yul\":11150:11159   */\n      dup3\n        /* \"#utility.yul\":11131:11179   */\n      tag_91\n      jump\t// in\n    tag_227:\n        /* \"#utility.yul\":11123:11129   */\n      dup4\n        /* \"#utility.yul\":11116:11180   */\n      sstore\n        /* \"#utility.yul\":11038:11194   */\n      pop\n        /* \"#utility.yul\":11015:11194   */\n    tag_226:\n        /* \"#utility.yul\":11240:11241   */\n      0x01\n        /* \"#utility.yul\":11236:11237   */\n      0x02\n        /* \"#utility.yul\":11228:11234   */\n      dup9\n        /* \"#utility.yul\":11224:11238   */\n      mul\n        /* \"#utility.yul\":11220:11242   */\n      add\n        /* \"#utility.yul\":11214:11218   */\n      dup9\n        /* \"#utility.yul\":11207:11243   */\n      sstore\n        /* \"#utility.yul\":10642:11253   */\n      pop\n      pop\n      pop\n        /* \"#utility.yul\":10605:11492   */\n    tag_218:\n      pop\n        /* \"#utility.yul\":10195:11498   */\n      pop\n      pop\n      pop\n        /* \"#utility.yul\":10103:11498   */\n      pop\n      pop\n      jump\t// out\n\n    auxdata: 0xa26469706673582212206c01ef026e383d754462d9652776b13e8e1769bea316d932760ca56b2509dc7b64736f6c63430008130033\n}\n",
				"bytecode": {
					"linkReferences": {},
					"object": "608060405234801561001057600080fd5b50610b04806100206000396000f3fe608060405234801561001057600080fd5b506004361061004c5760003560e01c806311f729901461005157806387eb54fe14610082578063d87ec4171461009e578063f40f48c9146100cf575b600080fd5b61006b600480360381019061006691906104fc565b6100eb565b6040516100799291906105cc565b60405180910390f35b61009c60048036038101906100979190610738565b61022c565b005b6100b860048036038101906100b391906107c3565b6102c5565b6040516100c69291906105cc565b60405180910390f35b6100e960048036038101906100e49190610738565b6103f9565b005b60016020528160005260406000206020528060005260406000206000915091505080600001805461011b9061081f565b80601f01602080910402602001604051908101604052809291908181526020018280546101479061081f565b80156101945780601f1061016957610100808354040283529160200191610194565b820191906000526020600020905b81548152906001019060200180831161017757829003601f168201915b5050505050908060010180546101a99061081f565b80601f01602080910402602001604051908101604052809291908181526020018280546101d59061081f565b80156102225780601f106101f757610100808354040283529160200191610222565b820191906000526020600020905b81548152906001019060200180831161020557829003601f168201915b5050505050905082565b604051806040016040528083815260200182815250600160003373ffffffffffffffffffffffffffffffffffffffff1673ffffffffffffffffffffffffffffffffffffffff168152602001908152602001600020600085815260200190815260200160002060008201518160000190816102a691906109fc565b5060208201518160010190816102bc91906109fc565b50905050505050565b60006020528060005260406000206000915090508060000180546102e89061081f565b80601f01602080910402602001604051908101604052809291908181526020018280546103149061081f565b80156103615780601f1061033657610100808354040283529160200191610361565b820191906000526020600020905b81548152906001019060200180831161034457829003601f168201915b5050505050908060010180546103769061081f565b80601f01602080910402602001604051908101604052809291908181526020018280546103a29061081f565b80156103ef5780601f106103c4576101008083540402835291602001916103ef565b820191906000526020600020905b8154815290600101906020018083116103d257829003601f168201915b5050505050905082565b604051806040016040528083815260200182815250600080858152602001908152602001600020600082015181600001908161043591906109fc565b50602082015181600101908161044b91906109fc565b50905050505050565b6000604051905090565b600080fd5b600080fd5b600073ffffffffffffffffffffffffffffffffffffffff82169050919050565b600061049382610468565b9050919050565b6104a381610488565b81146104ae57600080fd5b50565b6000813590506104c08161049a565b92915050565b6000819050919050565b6104d9816104c6565b81146104e457600080fd5b50565b6000813590506104f6816104d0565b92915050565b600080604083850312156105135761051261045e565b5b6000610521858286016104b1565b9250506020610532858286016104e7565b9150509250929050565b600081519050919050565b600082825260208201905092915050565b60005b8381101561057657808201518184015260208101905061055b565b60008484015250505050565b6000601f19601f8301169050919050565b600061059e8261053c565b6105a88185610547565b93506105b8818560208601610558565b6105c181610582565b840191505092915050565b600060408201905081810360008301526105e68185610593565b905081810360208301526105fa8184610593565b90509392505050565b600080fd5b600080fd5b7f4e487b7100000000000000000000000000000000000000000000000000000000600052604160045260246000fd5b61064582610582565b810181811067ffffffffffffffff821117156106645761066361060d565b5b80604052505050565b6000610677610454565b9050610683828261063c565b919050565b600067ffffffffffffffff8211156106a3576106a261060d565b5b6106ac82610582565b9050602081019050919050565b82818337600083830152505050565b60006106db6106d684610688565b61066d565b9050828152602081018484840111156106f7576106f6610608565b5b6107028482856106b9565b509392505050565b600082601f83011261071f5761071e610603565b5b813561072f8482602086016106c8565b91505092915050565b6000806000606084860312156107515761075061045e565b5b600061075f868287016104e7565b935050602084013567ffffffffffffffff8111156107805761077f610463565b5b61078c8682870161070a565b925050604084013567ffffffffffffffff8111156107ad576107ac610463565b5b6107b98682870161070a565b9150509250925092565b6000602082840312156107d9576107d861045e565b5b60006107e7848285016104e7565b91505092915050565b7f4e487b7100000000000000000000000000000000000000000000000000000000600052602260045260246000fd5b6000600282049050600182168061083757607f821691505b60208210810361084a576108496107f0565b5b50919050565b60008190508160005260206000209050919050565b60006020601f8301049050919050565b600082821b905092915050565b6000600883026108b27fffffffffffffffffffffffffffffffffffffffffffffffffffffffffffffffff82610875565b6108bc8683610875565b95508019841693508086168417925050509392505050565b6000819050919050565b60006108f96108f46108ef846104c6565b6108d4565b6104c6565b9050919050565b6000819050919050565b610913836108de565b61092761091f82610900565b848454610882565b825550505050565b600090565b61093c61092f565b61094781848461090a565b505050565b5b8181101561096b57610960600082610934565b60018101905061094d565b5050565b601f8211156109b05761098181610850565b61098a84610865565b81016020851015610999578190505b6109ad6109a585610865565b83018261094c565b50505b505050565b600082821c905092915050565b60006109d3600019846008026109b5565b1980831691505092915050565b60006109ec83836109c2565b9150826002028217905092915050565b610a058261053c565b67ffffffffffffffff811115610a1e57610a1d61060d565b5b610a28825461081f565b610a3382828561096f565b600060209050601f831160018114610a665760008415610a54578287015190505b610a5e85826109e0565b865550610ac6565b601f198416610a7486610850565b60005b82811015610a9c57848901518255600182019150602085019450602081019050610a77565b86831015610ab95784890151610ab5601f8916826109c2565b8355505b6001600288020188555050505b50505050505056fea26469706673582212206c01ef026e383d754462d9652776b13e8e1769bea316d932760ca56b2509dc7b64736f6c63430008130033",
					"opcodes": "PUSH1 0x80 PUSH1 0x40 MSTORE CALLVALUE DUP1 ISZERO PUSH2 0x10 JUMPI PUSH1 0x0 DUP1 REVERT JUMPDEST POP PUSH2 0xB04 DUP1 PUSH2 0x20 PUSH1 0x0 CODECOPY PUSH1 0x0 RETURN INVALID PUSH1 0x80 PUSH1 0x40 MSTORE CALLVALUE DUP1 ISZERO PUSH2 0x10 JUMPI PUSH1 0x0 DUP1 REVERT JUMPDEST POP PUSH1 0x4 CALLDATASIZE LT PUSH2 0x4C JUMPI PUSH1 0x0 CALLDATALOAD PUSH1 0xE0 SHR DUP1 PUSH4 0x11F72990 EQ PUSH2 0x51 JUMPI DUP1 PUSH4 0x87EB54FE EQ PUSH2 0x82 JUMPI DUP1 PUSH4 0xD87EC417 EQ PUSH2 0x9E JUMPI DUP1 PUSH4 0xF40F48C9 EQ PUSH2 0xCF JUMPI JUMPDEST PUSH1 0x0 DUP1 REVERT JUMPDEST PUSH2 0x6B PUSH1 0x4 DUP1 CALLDATASIZE SUB DUP2 ADD SWAP1 PUSH2 0x66 SWAP2 SWAP1 PUSH2 0x4FC JUMP JUMPDEST PUSH2 0xEB JUMP JUMPDEST PUSH1 0x40 MLOAD PUSH2 0x79 SWAP3 SWAP2 SWAP1 PUSH2 0x5CC JUMP JUMPDEST PUSH1 0x40 MLOAD DUP1 SWAP2 SUB SWAP1 RETURN JUMPDEST PUSH2 0x9C PUSH1 0x4 DUP1 CALLDATASIZE SUB DUP2 ADD SWAP1 PUSH2 0x97 SWAP2 SWAP1 PUSH2 0x738 JUMP JUMPDEST PUSH2 0x22C JUMP JUMPDEST STOP JUMPDEST PUSH2 0xB8 PUSH1 0x4 DUP1 CALLDATASIZE SUB DUP2 ADD SWAP1 PUSH2 0xB3 SWAP2 SWAP1 PUSH2 0x7C3 JUMP JUMPDEST PUSH2 0x2C5 JUMP JUMPDEST PUSH1 0x40 MLOAD PUSH2 0xC6 SWAP3 SWAP2 SWAP1 PUSH2 0x5CC JUMP JUMPDEST PUSH1 0x40 MLOAD DUP1 SWAP2 SUB SWAP1 RETURN JUMPDEST PUSH2 0xE9 PUSH1 0x4 DUP1 CALLDATASIZE SUB DUP2 ADD SWAP1 PUSH2 0xE4 SWAP2 SWAP1 PUSH2 0x738 JUMP JUMPDEST PUSH2 0x3F9 JUMP JUMPDEST STOP JUMPDEST PUSH1 0x1 PUSH1 0x20 MSTORE DUP2 PUSH1 0x0 MSTORE PUSH1 0x40 PUSH1 0x0 KECCAK256 PUSH1 0x20 MSTORE DUP1 PUSH1 0x0 MSTORE PUSH1 0x40 PUSH1 0x0 KECCAK256 PUSH1 0x0 SWAP2 POP SWAP2 POP POP DUP1 PUSH1 0x0 ADD DUP1 SLOAD PUSH2 0x11B SWAP1 PUSH2 0x81F JUMP JUMPDEST DUP1 PUSH1 0x1F ADD PUSH1 0x20 DUP1 SWAP2 DIV MUL PUSH1 0x20 ADD PUSH1 0x40 MLOAD SWAP1 DUP2 ADD PUSH1 0x40 MSTORE DUP1 SWAP3 SWAP2 SWAP1 DUP2 DUP2 MSTORE PUSH1 0x20 ADD DUP3 DUP1 SLOAD PUSH2 0x147 SWAP1 PUSH2 0x81F JUMP JUMPDEST DUP1 ISZERO PUSH2 0x194 JUMPI DUP1 PUSH1 0x1F LT PUSH2 0x169 JUMPI PUSH2 0x100 DUP1 DUP4 SLOAD DIV MUL DUP4 MSTORE SWAP2 PUSH1 0x20 ADD SWAP2 PUSH2 0x194 JUMP JUMPDEST DUP3 ADD SWAP2 SWAP1 PUSH1 0x0 MSTORE PUSH1 0x20 PUSH1 0x0 KECCAK256 SWAP1 JUMPDEST DUP2 SLOAD DUP2 MSTORE SWAP1 PUSH1 0x1 ADD SWAP1 PUSH1 0x20 ADD DUP1 DUP4 GT PUSH2 0x177 JUMPI DUP3 SWAP1 SUB PUSH1 0x1F AND DUP3 ADD SWAP2 JUMPDEST POP POP POP POP POP SWAP1 DUP1 PUSH1 0x1 ADD DUP1 SLOAD PUSH2 0x1A9 SWAP1 PUSH2 0x81F JUMP JUMPDEST DUP1 PUSH1 0x1F ADD PUSH1 0x20 DUP1 SWAP2 DIV MUL PUSH1 0x20 ADD PUSH1 0x40 MLOAD SWAP1 DUP2 ADD PUSH1 0x40 MSTORE DUP1 SWAP3 SWAP2 SWAP1 DUP2 DUP2 MSTORE PUSH1 0x20 ADD DUP3 DUP1 SLOAD PUSH2 0x1D5 SWAP1 PUSH2 0x81F JUMP JUMPDEST DUP1 ISZERO PUSH2 0x222 JUMPI DUP1 PUSH1 0x1F LT PUSH2 0x1F7 JUMPI PUSH2 0x100 DUP1 DUP4 SLOAD DIV MUL DUP4 MSTORE SWAP2 PUSH1 0x20 ADD SWAP2 PUSH2 0x222 JUMP JUMPDEST DUP3 ADD SWAP2 SWAP1 PUSH1 0x0 MSTORE PUSH1 0x20 PUSH1 0x0 KECCAK256 SWAP1 JUMPDEST DUP2 SLOAD DUP2 MSTORE SWAP1 PUSH1 0x1 ADD SWAP1 PUSH1 0x20 ADD DUP1 DUP4 GT PUSH2 0x205 JUMPI DUP3 SWAP1 SUB PUSH1 0x1F AND DUP3 ADD SWAP2 JUMPDEST POP POP POP POP POP SWAP1 POP DUP3 JUMP JUMPDEST PUSH1 0x40 MLOAD DUP1 PUSH1 0x40 ADD PUSH1 0x40 MSTORE DUP1 DUP4 DUP2 MSTORE PUSH1 0x20 ADD DUP3 DUP2 MSTORE POP PUSH1 0x1 PUSH1 0x0 CALLER PUSH20 0xFFFFFFFFFFFFFFFFFFFFFFFFFFFFFFFFFFFFFFFF AND PUSH20 0xFFFFFFFFFFFFFFFFFFFFFFFFFFFFFFFFFFFFFFFF AND DUP2 MSTORE PUSH1 0x20 ADD SWAP1 DUP2 MSTORE PUSH1 0x20 ADD PUSH1 0x0 KECCAK256 PUSH1 0x0 DUP6 DUP2 MSTORE PUSH1 0x20 ADD SWAP1 DUP2 MSTORE PUSH1 0x20 ADD PUSH1 0x0 KECCAK256 PUSH1 0x0 DUP3 ADD MLOAD DUP2 PUSH1 0x0 ADD SWAP1 DUP2 PUSH2 0x2A6 SWAP2 SWAP1 PUSH2 0x9FC JUMP JUMPDEST POP PUSH1 0x20 DUP3 ADD MLOAD DUP2 PUSH1 0x1 ADD SWAP1 DUP2 PUSH2 0x2BC SWAP2 SWAP1 PUSH2 0x9FC JUMP JUMPDEST POP SWAP1 POP POP POP POP POP JUMP JUMPDEST PUSH1 0x0 PUSH1 0x20 MSTORE DUP1 PUSH1 0x0 MSTORE PUSH1 0x40 PUSH1 0x0 KECCAK256 PUSH1 0x0 SWAP2 POP SWAP1 POP DUP1 PUSH1 0x0 ADD DUP1 SLOAD PUSH2 0x2E8 SWAP1 PUSH2 0x81F JUMP JUMPDEST DUP1 PUSH1 0x1F ADD PUSH1 0x20 DUP1 SWAP2 DIV MUL PUSH1 0x20 ADD PUSH1 0x40 MLOAD SWAP1 DUP2 ADD PUSH1 0x40 MSTORE DUP1 SWAP3 SWAP2 SWAP1 DUP2 DUP2 MSTORE PUSH1 0x20 ADD DUP3 DUP1 SLOAD PUSH2 0x314 SWAP1 PUSH2 0x81F JUMP JUMPDEST DUP1 ISZERO PUSH2 0x361 JUMPI DUP1 PUSH1 0x1F LT PUSH2 0x336 JUMPI PUSH2 0x100 DUP1 DUP4 SLOAD DIV MUL DUP4 MSTORE SWAP2 PUSH1 0x20 ADD SWAP2 PUSH2 0x361 JUMP JUMPDEST DUP3 ADD SWAP2 SWAP1 PUSH1 0x0 MSTORE PUSH1 0x20 PUSH1 0x0 KECCAK256 SWAP1 JUMPDEST DUP2 SLOAD DUP2 MSTORE SWAP1 PUSH1 0x1 ADD SWAP1 PUSH1 0x20 ADD DUP1 DUP4 GT PUSH2 0x344 JUMPI DUP3 SWAP1 SUB PUSH1 0x1F AND DUP3 ADD SWAP2 JUMPDEST POP POP POP POP POP SWAP1 DUP1 PUSH1 0x1 ADD DUP1 SLOAD PUSH2 0x376 SWAP1 PUSH2 0x81F JUMP JUMPDEST DUP1 PUSH1 0x1F ADD PUSH1 0x20 DUP1 SWAP2 DIV MUL PUSH1 0x20 ADD PUSH1 0x40 MLOAD SWAP1 DUP2 ADD PUSH1 0x40 MSTORE DUP1 SWAP3 SWAP2 SWAP1 DUP2 DUP2 MSTORE PUSH1 0x20 ADD DUP3 DUP1 SLOAD PUSH2 0x3A2 SWAP1 PUSH2 0x81F JUMP JUMPDEST DUP1 ISZERO PUSH2 0x3EF JUMPI DUP1 PUSH1 0x1F LT PUSH2 0x3C4 JUMPI PUSH2 0x100 DUP1 DUP4 SLOAD DIV MUL DUP4 MSTORE SWAP2 PUSH1 0x20 ADD SWAP2 PUSH2 0x3EF JUMP JUMPDEST DUP3 ADD SWAP2 SWAP1 PUSH1 0x0 MSTORE PUSH1 0x20 PUSH1 0x0 KECCAK256 SWAP1 JUMPDEST DUP2 SLOAD DUP2 MSTORE SWAP1 PUSH1 0x1 ADD SWAP1 PUSH1 0x20 ADD DUP1 DUP4 GT PUSH2 0x3D2 JUMPI DUP3 SWAP1 SUB PUSH1 0x1F AND DUP3 ADD SWAP2 JUMPDEST POP POP POP POP POP SWAP1 POP DUP3 JUMP JUMPDEST PUSH1 0x40 MLOAD DUP1 PUSH1 0x40 ADD PUSH1 0x40 MSTORE DUP1 DUP4 DUP2 MSTORE PUSH1 0x20 ADD DUP3 DUP2 MSTORE POP PUSH1 0x0 DUP1 DUP6 DUP2 MSTORE PUSH1 0x20 ADD SWAP1 DUP2 MSTORE PUSH1 0x20 ADD PUSH1 0x0 KECCAK256 PUSH1 0x0 DUP3 ADD MLOAD DUP2 PUSH1 0x0 ADD SWAP1 DUP2 PUSH2 0x435 SWAP2 SWAP1 PUSH2 0x9FC JUMP JUMPDEST POP PUSH1 0x20 DUP3 ADD MLOAD DUP2 PUSH1 0x1 ADD SWAP1 DUP2 PUSH2 0x44B SWAP2 SWAP1 PUSH2 0x9FC JUMP JUMPDEST POP SWAP1 POP POP POP POP POP JUMP JUMPDEST PUSH1 0x0 PUSH1 0x40 MLOAD SWAP1 POP SWAP1 JUMP JUMPDEST PUSH1 0x0 DUP1 REVERT JUMPDEST PUSH1 0x0 DUP1 REVERT JUMPDEST PUSH1 0x0 PUSH20 0xFFFFFFFFFFFFFFFFFFFFFFFFFFFFFFFFFFFFFFFF DUP3 AND SWAP1 POP SWAP2 SWAP1 POP JUMP JUMPDEST PUSH1 0x0 PUSH2 0x493 DUP3 PUSH2 0x468 JUMP JUMPDEST SWAP1 POP SWAP2 SWAP1 POP JUMP JUMPDEST PUSH2 0x4A3 DUP2 PUSH2 0x488 JUMP JUMPDEST DUP2 EQ PUSH2 0x4AE JUMPI PUSH1 0x0 DUP1 REVERT JUMPDEST POP JUMP JUMPDEST PUSH1 0x0 DUP2 CALLDATALOAD SWAP1 POP PUSH2 0x4C0 DUP2 PUSH2 0x49A JUMP JUMPDEST SWAP3 SWAP2 POP POP JUMP JUMPDEST PUSH1 0x0 DUP2 SWAP1 POP SWAP2 SWAP1 POP JUMP JUMPDEST PUSH2 0x4D9 DUP2 PUSH2 0x4C6 JUMP JUMPDEST DUP2 EQ PUSH2 0x4E4 JUMPI PUSH1 0x0 DUP1 REVERT JUMPDEST POP JUMP JUMPDEST PUSH1 0x0 DUP2 CALLDATALOAD SWAP1 POP PUSH2 0x4F6 DUP2 PUSH2 0x4D0 JUMP JUMPDEST SWAP3 SWAP2 POP POP JUMP JUMPDEST PUSH1 0x0 DUP1 PUSH1 0x40 DUP4 DUP6 SUB SLT ISZERO PUSH2 0x513 JUMPI PUSH2 0x512 PUSH2 0x45E JUMP JUMPDEST JUMPDEST PUSH1 0x0 PUSH2 0x521 DUP6 DUP3 DUP7 ADD PUSH2 0x4B1 JUMP JUMPDEST SWAP3 POP POP PUSH1 0x20 PUSH2 0x532 DUP6 DUP3 DUP7 ADD PUSH2 0x4E7 JUMP JUMPDEST SWAP2 POP POP SWAP3 POP SWAP3 SWAP1 POP JUMP JUMPDEST PUSH1 0x0 DUP2 MLOAD SWAP1 POP SWAP2 SWAP1 POP JUMP JUMPDEST PUSH1 0x0 DUP3 DUP3 MSTORE PUSH1 0x20 DUP3 ADD SWAP1 POP SWAP3 SWAP2 POP POP JUMP JUMPDEST PUSH1 0x0 JUMPDEST DUP4 DUP2 LT ISZERO PUSH2 0x576 JUMPI DUP1 DUP3 ADD MLOAD DUP2 DUP5 ADD MSTORE PUSH1 0x20 DUP2 ADD SWAP1 POP PUSH2 0x55B JUMP JUMPDEST PUSH1 0x0 DUP5 DUP5 ADD MSTORE POP POP POP POP JUMP JUMPDEST PUSH1 0x0 PUSH1 0x1F NOT PUSH1 0x1F DUP4 ADD AND SWAP1 POP SWAP2 SWAP1 POP JUMP JUMPDEST PUSH1 0x0 PUSH2 0x59E DUP3 PUSH2 0x53C JUMP JUMPDEST PUSH2 0x5A8 DUP2 DUP6 PUSH2 0x547 JUMP JUMPDEST SWAP4 POP PUSH2 0x5B8 DUP2 DUP6 PUSH1 0x20 DUP7 ADD PUSH2 0x558 JUMP JUMPDEST PUSH2 0x5C1 DUP2 PUSH2 0x582 JUMP JUMPDEST DUP5 ADD SWAP2 POP POP SWAP3 SWAP2 POP POP JUMP JUMPDEST PUSH1 0x0 PUSH1 0x40 DUP3 ADD SWAP1 POP DUP2 DUP2 SUB PUSH1 0x0 DUP4 ADD MSTORE PUSH2 0x5E6 DUP2 DUP6 PUSH2 0x593 JUMP JUMPDEST SWAP1 POP DUP2 DUP2 SUB PUSH1 0x20 DUP4 ADD MSTORE PUSH2 0x5FA DUP2 DUP5 PUSH2 0x593 JUMP JUMPDEST SWAP1 POP SWAP4 SWAP3 POP POP POP JUMP JUMPDEST PUSH1 0x0 DUP1 REVERT JUMPDEST PUSH1 0x0 DUP1 REVERT JUMPDEST PUSH32 0x4E487B7100000000000000000000000000000000000000000000000000000000 PUSH1 0x0 MSTORE PUSH1 0x41 PUSH1 0x4 MSTORE PUSH1 0x24 PUSH1 0x0 REVERT JUMPDEST PUSH2 0x645 DUP3 PUSH2 0x582 JUMP JUMPDEST DUP2 ADD DUP2 DUP2 LT PUSH8 0xFFFFFFFFFFFFFFFF DUP3 GT OR ISZERO PUSH2 0x664 JUMPI PUSH2 0x663 PUSH2 0x60D JUMP JUMPDEST JUMPDEST DUP1 PUSH1 0x40 MSTORE POP POP POP JUMP JUMPDEST PUSH1 0x0 PUSH2 0x677 PUSH2 0x454 JUMP JUMPDEST SWAP1 POP PUSH2 0x683 DUP3 DUP3 PUSH2 0x63C JUMP JUMPDEST SWAP2 SWAP1 POP JUMP JUMPDEST PUSH1 0x0 PUSH8 0xFFFFFFFFFFFFFFFF DUP3 GT ISZERO PUSH2 0x6A3 JUMPI PUSH2 0x6A2 PUSH2 0x60D JUMP JUMPDEST JUMPDEST PUSH2 0x6AC DUP3 PUSH2 0x582 JUMP JUMPDEST SWAP1 POP PUSH1 0x20 DUP2 ADD SWAP1 POP SWAP2 SWAP1 POP JUMP JUMPDEST DUP3 DUP2 DUP4 CALLDATACOPY PUSH1 0x0 DUP4 DUP4 ADD MSTORE POP POP POP JUMP JUMPDEST PUSH1 0x0 PUSH2 0x6DB PUSH2 0x6D6 DUP5 PUSH2 0x688 JUMP JUMPDEST PUSH2 0x66D JUMP JUMPDEST SWAP1 POP DUP3 DUP2 MSTORE PUSH1 0x20 DUP2 ADD DUP5 DUP5 DUP5 ADD GT ISZERO PUSH2 0x6F7 JUMPI PUSH2 0x6F6 PUSH2 0x608 JUMP JUMPDEST JUMPDEST PUSH2 0x702 DUP5 DUP3 DUP6 PUSH2 0x6B9 JUMP JUMPDEST POP SWAP4 SWAP3 POP POP POP JUMP JUMPDEST PUSH1 0x0 DUP3 PUSH1 0x1F DUP4 ADD SLT PUSH2 0x71F JUMPI PUSH2 0x71E PUSH2 0x603 JUMP JUMPDEST JUMPDEST DUP2 CALLDATALOAD PUSH2 0x72F DUP5 DUP3 PUSH1 0x20 DUP7 ADD PUSH2 0x6C8 JUMP JUMPDEST SWAP2 POP POP SWAP3 SWAP2 POP POP JUMP JUMPDEST PUSH1 0x0 DUP1 PUSH1 0x0 PUSH1 0x60 DUP5 DUP7 SUB SLT ISZERO PUSH2 0x751 JUMPI PUSH2 0x750 PUSH2 0x45E JUMP JUMPDEST JUMPDEST PUSH1 0x0 PUSH2 0x75F DUP7 DUP3 DUP8 ADD PUSH2 0x4E7 JUMP JUMPDEST SWAP4 POP POP PUSH1 0x20 DUP5 ADD CALLDATALOAD PUSH8 0xFFFFFFFFFFFFFFFF DUP2 GT ISZERO PUSH2 0x780 JUMPI PUSH2 0x77F PUSH2 0x463 JUMP JUMPDEST JUMPDEST PUSH2 0x78C DUP7 DUP3 DUP8 ADD PUSH2 0x70A JUMP JUMPDEST SWAP3 POP POP PUSH1 0x40 DUP5 ADD CALLDATALOAD PUSH8 0xFFFFFFFFFFFFFFFF DUP2 GT ISZERO PUSH2 0x7AD JUMPI PUSH2 0x7AC PUSH2 0x463 JUMP JUMPDEST JUMPDEST PUSH2 0x7B9 DUP7 DUP3 DUP8 ADD PUSH2 0x70A JUMP JUMPDEST SWAP2 POP POP SWAP3 POP SWAP3 POP SWAP3 JUMP JUMPDEST PUSH1 0x0 PUSH1 0x20 DUP3 DUP5 SUB SLT ISZERO PUSH2 0x7D9 JUMPI PUSH2 0x7D8 PUSH2 0x45E JUMP JUMPDEST JUMPDEST PUSH1 0x0 PUSH2 0x7E7 DUP5 DUP3 DUP6 ADD PUSH2 0x4E7 JUMP JUMPDEST SWAP2 POP POP SWAP3 SWAP2 POP POP JUMP JUMPDEST PUSH32 0x4E487B7100000000000000000000000000000000000000000000000000000000 PUSH1 0x0 MSTORE PUSH1 0x22 PUSH1 0x4 MSTORE PUSH1 0x24 PUSH1 0x0 REVERT JUMPDEST PUSH1 0x0 PUSH1 0x2 DUP3 DIV SWAP1 POP PUSH1 0x1 DUP3 AND DUP1 PUSH2 0x837 JUMPI PUSH1 0x7F DUP3 AND SWAP2 POP JUMPDEST PUSH1 0x20 DUP3 LT DUP2 SUB PUSH2 0x84A JUMPI PUSH2 0x849 PUSH2 0x7F0 JUMP JUMPDEST JUMPDEST POP SWAP2 SWAP1 POP JUMP JUMPDEST PUSH1 0x0 DUP2 SWAP1 POP DUP2 PUSH1 0x0 MSTORE PUSH1 0x20 PUSH1 0x0 KECCAK256 SWAP1 POP SWAP2 SWAP1 POP JUMP JUMPDEST PUSH1 0x0 PUSH1 0x20 PUSH1 0x1F DUP4 ADD DIV SWAP1 POP SWAP2 SWAP1 POP JUMP JUMPDEST PUSH1 0x0 DUP3 DUP3 SHL SWAP1 POP SWAP3 SWAP2 POP POP JUMP JUMPDEST PUSH1 0x0 PUSH1 0x8 DUP4 MUL PUSH2 0x8B2 PUSH32 0xFFFFFFFFFFFFFFFFFFFFFFFFFFFFFFFFFFFFFFFFFFFFFFFFFFFFFFFFFFFFFFFF DUP3 PUSH2 0x875 JUMP JUMPDEST PUSH2 0x8BC DUP7 DUP4 PUSH2 0x875 JUMP JUMPDEST SWAP6 POP DUP1 NOT DUP5 AND SWAP4 POP DUP1 DUP7 AND DUP5 OR SWAP3 POP POP POP SWAP4 SWAP3 POP POP POP JUMP JUMPDEST PUSH1 0x0 DUP2 SWAP1 POP SWAP2 SWAP1 POP JUMP JUMPDEST PUSH1 0x0 PUSH2 0x8F9 PUSH2 0x8F4 PUSH2 0x8EF DUP5 PUSH2 0x4C6 JUMP JUMPDEST PUSH2 0x8D4 JUMP JUMPDEST PUSH2 0x4C6 JUMP JUMPDEST SWAP1 POP SWAP2 SWAP1 POP JUMP JUMPDEST PUSH1 0x0 DUP2 SWAP1 POP SWAP2 SWAP1 POP JUMP JUMPDEST PUSH2 0x913 DUP4 PUSH2 0x8DE JUMP JUMPDEST PUSH2 0x927 PUSH2 0x91F DUP3 PUSH2 0x900 JUMP JUMPDEST DUP5 DUP5 SLOAD PUSH2 0x882 JUMP JUMPDEST DUP3 SSTORE POP POP POP POP JUMP JUMPDEST PUSH1 0x0 SWAP1 JUMP JUMPDEST PUSH2 0x93C PUSH2 0x92F JUMP JUMPDEST PUSH2 0x947 DUP2 DUP5 DUP5 PUSH2 0x90A JUMP JUMPDEST POP POP POP JUMP JUMPDEST JUMPDEST DUP2 DUP2 LT ISZERO PUSH2 0x96B JUMPI PUSH2 0x960 PUSH1 0x0 DUP3 PUSH2 0x934 JUMP JUMPDEST PUSH1 0x1 DUP2 ADD SWAP1 POP PUSH2 0x94D JUMP JUMPDEST POP POP JUMP JUMPDEST PUSH1 0x1F DUP3 GT ISZERO PUSH2 0x9B0 JUMPI PUSH2 0x981 DUP2 PUSH2 0x850 JUMP JUMPDEST PUSH2 0x98A DUP5 PUSH2 0x865 JUMP JUMPDEST DUP2 ADD PUSH1 0x20 DUP6 LT ISZERO PUSH2 0x999 JUMPI DUP2 SWAP1 POP JUMPDEST PUSH2 0x9AD PUSH2 0x9A5 DUP6 PUSH2 0x865 JUMP JUMPDEST DUP4 ADD DUP3 PUSH2 0x94C JUMP JUMPDEST POP POP JUMPDEST POP POP POP JUMP JUMPDEST PUSH1 0x0 DUP3 DUP3 SHR SWAP1 POP SWAP3 SWAP2 POP POP JUMP JUMPDEST PUSH1 0x0 PUSH2 0x9D3 PUSH1 0x0 NOT DUP5 PUSH1 0x8 MUL PUSH2 0x9B5 JUMP JUMPDEST NOT DUP1 DUP4 AND SWAP2 POP POP SWAP3 SWAP2 POP POP JUMP JUMPDEST PUSH1 0x0 PUSH2 0x9EC DUP4 DUP4 PUSH2 0x9C2 JUMP JUMPDEST SWAP2 POP DUP3 PUSH1 0x2 MUL DUP3 OR SWAP1 POP SWAP3 SWAP2 POP POP JUMP JUMPDEST PUSH2 0xA05 DUP3 PUSH2 0x53C JUMP JUMPDEST PUSH8 0xFFFFFFFFFFFFFFFF DUP2 GT ISZERO PUSH2 0xA1E JUMPI PUSH2 0xA1D PUSH2 0x60D JUMP JUMPDEST JUMPDEST PUSH2 0xA28 DUP3 SLOAD PUSH2 0x81F JUMP JUMPDEST PUSH2 0xA33 DUP3 DUP3 DUP6 PUSH2 0x96F JUMP JUMPDEST PUSH1 0x0 PUSH1 0x20 SWAP1 POP PUSH1 0x1F DUP4 GT PUSH1 0x1 DUP2 EQ PUSH2 0xA66 JUMPI PUSH1 0x0 DUP5 ISZERO PUSH2 0xA54 JUMPI DUP3 DUP8 ADD MLOAD SWAP1 POP JUMPDEST PUSH2 0xA5E DUP6 DUP3 PUSH2 0x9E0 JUMP JUMPDEST DUP7 SSTORE POP PUSH2 0xAC6 JUMP JUMPDEST PUSH1 0x1F NOT DUP5 AND PUSH2 0xA74 DUP7 PUSH2 0x850 JUMP JUMPDEST PUSH1 0x0 JUMPDEST DUP3 DUP2 LT ISZERO PUSH2 0xA9C JUMPI DUP5 DUP10 ADD MLOAD DUP3 SSTORE PUSH1 0x1 DUP3 ADD SWAP2 POP PUSH1 0x20 DUP6 ADD SWAP5 POP PUSH1 0x20 DUP2 ADD SWAP1 POP PUSH2 0xA77 JUMP JUMPDEST DUP7 DUP4 LT ISZERO PUSH2 0xAB9 JUMPI DUP5 DUP10 ADD MLOAD PUSH2 0xAB5 PUSH1 0x1F DUP10 AND DUP3 PUSH2 0x9C2 JUMP JUMPDEST DUP4 SSTORE POP JUMPDEST PUSH1 0x1 PUSH1 0x2 DUP9 MUL ADD DUP9 SSTORE POP POP POP JUMPDEST POP POP POP POP POP POP JUMP INVALID LOG2 PUSH5 0x6970667358 0x22 SLT KECCAK256 PUSH13 0x1EF026E383D754462D9652776 0xB1 RETURNDATACOPY DUP15 OR PUSH10 0xBEA316D932760CA56B25 MULMOD 0xDC PUSH28 0x64736F6C634300081300330000000000000000000000000000000000 "
				},
				"gasEstimates": {
					"creation": {
						"codeDepositCost": "564000",
						"executionCost": "600",
						"totalCost": "564600"
					},
					"external": {
						"addMovie(uint256,string,string)": "infinite",
						"addMyMovie(uint256,string,string)": "infinite",
						"movie(uint256)": "infinite",
						"myMovie(address,uint256)": "infinite"
					}
				},
				"methodIdentifiers": {
					"addMovie(uint256,string,string)": "f40f48c9",
					"addMyMovie(uint256,string,string)": "87eb54fe",
					"movie(uint256)": "d87ec417",
					"myMovie(address,uint256)": "11f72990"
				}
			},
			"storageLayout": {
				"storage": [
					{
						"astId": 53,
						"contract": "Udemy/mapping.sol:Exersice",
						"label": "movie",
						"offset": 0,
						"slot": "0",
						"type": "t_mapping(t_uint256,t_struct(Movie)48_storage)"
					},
					{
						"astId": 60,
						"contract": "Udemy/mapping.sol:Exersice",
						"label": "myMovie",
						"offset": 0,
						"slot": "1",
						"type": "t_mapping(t_address,t_mapping(t_uint256,t_struct(Movie)48_storage))"
					}
				],
				"types": {
					"t_address": {
						"encoding": "inplace",
						"label": "address",
						"numberOfBytes": "20"
					},
					"t_mapping(t_address,t_mapping(t_uint256,t_struct(Movie)48_storage))": {
						"encoding": "mapping",
						"key": "t_address",
						"label": "mapping(address => mapping(uint256 => struct Exersice.Movie))",
						"numberOfBytes": "32",
						"value": "t_mapping(t_uint256,t_struct(Movie)48_storage)"
					},
					"t_mapping(t_uint256,t_struct(Movie)48_storage)": {
						"encoding": "mapping",
						"key": "t_uint256",
						"label": "mapping(uint256 => struct Exersice.Movie)",
						"numberOfBytes": "32",
						"value": "t_struct(Movie)48_storage"
					},
					"t_string_storage": {
						"encoding": "bytes",
						"label": "string",
						"numberOfBytes": "32"
					},
					"t_struct(Movie)48_storage": {
						"encoding": "inplace",
						"label": "struct Exersice.Movie",
						"members": [
							{
								"astId": 45,
								"contract": "Udemy/mapping.sol:Exersice",
								"label": "title",
								"offset": 0,
								"slot": "0",
								"type": "t_string_storage"
							},
							{
								"astId": 47,
								"contract": "Udemy/mapping.sol:Exersice",
								"label": "director",
								"offset": 0,
								"slot": "1",
								"type": "t_string_storage"
							}
						],
						"numberOfBytes": "64"
					},
					"t_uint256": {
						"encoding": "inplace",
						"label": "uint256",
						"numberOfBytes": "32"
					}
				}
			},
			"userdoc": {
				"kind": "user",
				"methods": {},
				"version": 1
			}
		}
	}
}